{
  "contractName": "HackDapper",
  "abi": [
    {
      "inputs": [
        {
          "internalType": "address",
          "name": "_tokenAddress",
          "type": "address"
        }
      ],
      "stateMutability": "nonpayable",
      "type": "constructor"
    },
    {
      "anonymous": false,
      "inputs": [
        {
          "indexed": true,
          "internalType": "address",
          "name": "owner",
          "type": "address"
        },
        {
          "indexed": true,
          "internalType": "address",
          "name": "approved",
          "type": "address"
        },
        {
          "indexed": true,
          "internalType": "uint256",
          "name": "tokenId",
          "type": "uint256"
        }
      ],
      "name": "Approval",
      "type": "event"
    },
    {
      "anonymous": false,
      "inputs": [
        {
          "indexed": true,
          "internalType": "address",
          "name": "owner",
          "type": "address"
        },
        {
          "indexed": true,
          "internalType": "address",
          "name": "operator",
          "type": "address"
        },
        {
          "indexed": false,
          "internalType": "bool",
          "name": "approved",
          "type": "bool"
        }
      ],
      "name": "ApprovalForAll",
      "type": "event"
    },
    {
      "anonymous": false,
      "inputs": [
        {
          "indexed": true,
          "internalType": "address",
          "name": "previousOwner",
          "type": "address"
        },
        {
          "indexed": true,
          "internalType": "address",
          "name": "newOwner",
          "type": "address"
        }
      ],
      "name": "OwnershipTransferred",
      "type": "event"
    },
    {
      "anonymous": false,
      "inputs": [
        {
          "indexed": true,
          "internalType": "address",
          "name": "from",
          "type": "address"
        },
        {
          "indexed": true,
          "internalType": "address",
          "name": "to",
          "type": "address"
        },
        {
          "indexed": true,
          "internalType": "uint256",
          "name": "tokenId",
          "type": "uint256"
        }
      ],
      "name": "Transfer",
      "type": "event"
    },
    {
      "inputs": [],
      "name": "MINT_PRICE",
      "outputs": [
        {
          "internalType": "uint256",
          "name": "",
          "type": "uint256"
        }
      ],
      "stateMutability": "view",
      "type": "function",
      "constant": true
    },
    {
      "inputs": [],
      "name": "PaymentToken",
      "outputs": [
        {
          "internalType": "contract ERC20",
          "name": "",
          "type": "address"
        }
      ],
      "stateMutability": "view",
      "type": "function",
      "constant": true
    },
    {
      "inputs": [
        {
          "internalType": "address",
          "name": "to",
          "type": "address"
        },
        {
          "internalType": "uint256",
          "name": "tokenId",
          "type": "uint256"
        }
      ],
      "name": "approve",
      "outputs": [],
      "stateMutability": "nonpayable",
      "type": "function"
    },
    {
      "inputs": [
        {
          "internalType": "address",
          "name": "owner",
          "type": "address"
        }
      ],
      "name": "balanceOf",
      "outputs": [
        {
          "internalType": "uint256",
          "name": "",
          "type": "uint256"
        }
      ],
      "stateMutability": "view",
      "type": "function",
      "constant": true
    },
    {
      "inputs": [
        {
          "internalType": "uint256",
          "name": "tokenId",
          "type": "uint256"
        }
      ],
      "name": "getApproved",
      "outputs": [
        {
          "internalType": "address",
          "name": "",
          "type": "address"
        }
      ],
      "stateMutability": "view",
      "type": "function",
      "constant": true
    },
    {
      "inputs": [
        {
          "internalType": "address",
          "name": "owner",
          "type": "address"
        },
        {
          "internalType": "address",
          "name": "operator",
          "type": "address"
        }
      ],
      "name": "isApprovedForAll",
      "outputs": [
        {
          "internalType": "bool",
          "name": "",
          "type": "bool"
        }
      ],
      "stateMutability": "view",
      "type": "function",
      "constant": true
    },
    {
      "inputs": [],
      "name": "name",
      "outputs": [
        {
          "internalType": "string",
          "name": "",
          "type": "string"
        }
      ],
      "stateMutability": "view",
      "type": "function",
      "constant": true
    },
    {
      "inputs": [],
      "name": "owner",
      "outputs": [
        {
          "internalType": "address",
          "name": "",
          "type": "address"
        }
      ],
      "stateMutability": "view",
      "type": "function",
      "constant": true
    },
    {
      "inputs": [
        {
          "internalType": "uint256",
          "name": "tokenId",
          "type": "uint256"
        }
      ],
      "name": "ownerOf",
      "outputs": [
        {
          "internalType": "address",
          "name": "",
          "type": "address"
        }
      ],
      "stateMutability": "view",
      "type": "function",
      "constant": true
    },
    {
      "inputs": [],
      "name": "renounceOwnership",
      "outputs": [],
      "stateMutability": "nonpayable",
      "type": "function"
    },
    {
      "inputs": [
        {
          "internalType": "address",
          "name": "from",
          "type": "address"
        },
        {
          "internalType": "address",
          "name": "to",
          "type": "address"
        },
        {
          "internalType": "uint256",
          "name": "tokenId",
          "type": "uint256"
        }
      ],
      "name": "safeTransferFrom",
      "outputs": [],
      "stateMutability": "nonpayable",
      "type": "function"
    },
    {
      "inputs": [
        {
          "internalType": "address",
          "name": "from",
          "type": "address"
        },
        {
          "internalType": "address",
          "name": "to",
          "type": "address"
        },
        {
          "internalType": "uint256",
          "name": "tokenId",
          "type": "uint256"
        },
        {
          "internalType": "bytes",
          "name": "data",
          "type": "bytes"
        }
      ],
      "name": "safeTransferFrom",
      "outputs": [],
      "stateMutability": "nonpayable",
      "type": "function"
    },
    {
      "inputs": [
        {
          "internalType": "address",
          "name": "operator",
          "type": "address"
        },
        {
          "internalType": "bool",
          "name": "approved",
          "type": "bool"
        }
      ],
      "name": "setApprovalForAll",
      "outputs": [],
      "stateMutability": "nonpayable",
      "type": "function"
    },
    {
      "inputs": [
        {
          "internalType": "bytes4",
          "name": "interfaceId",
          "type": "bytes4"
        }
      ],
      "name": "supportsInterface",
      "outputs": [
        {
          "internalType": "bool",
          "name": "",
          "type": "bool"
        }
      ],
      "stateMutability": "view",
      "type": "function",
      "constant": true
    },
    {
      "inputs": [],
      "name": "symbol",
      "outputs": [
        {
          "internalType": "string",
          "name": "",
          "type": "string"
        }
      ],
      "stateMutability": "view",
      "type": "function",
      "constant": true
    },
    {
      "inputs": [],
      "name": "tokenAddress",
      "outputs": [
        {
          "internalType": "address",
          "name": "",
          "type": "address"
        }
      ],
      "stateMutability": "view",
      "type": "function",
      "constant": true
    },
    {
      "inputs": [
        {
          "internalType": "uint256",
          "name": "tokenId",
          "type": "uint256"
        }
      ],
      "name": "tokenURI",
      "outputs": [
        {
          "internalType": "string",
          "name": "",
          "type": "string"
        }
      ],
      "stateMutability": "view",
      "type": "function",
      "constant": true
    },
    {
      "inputs": [
        {
          "internalType": "address",
          "name": "from",
          "type": "address"
        },
        {
          "internalType": "address",
          "name": "to",
          "type": "address"
        },
        {
          "internalType": "uint256",
          "name": "tokenId",
          "type": "uint256"
        }
      ],
      "name": "transferFrom",
      "outputs": [],
      "stateMutability": "nonpayable",
      "type": "function"
    },
    {
      "inputs": [
        {
          "internalType": "address",
          "name": "newOwner",
          "type": "address"
        }
      ],
      "name": "transferOwnership",
      "outputs": [],
      "stateMutability": "nonpayable",
      "type": "function"
    },
    {
      "inputs": [
        {
          "internalType": "address",
          "name": "to",
          "type": "address"
        }
      ],
      "name": "safeMint",
      "outputs": [],
      "stateMutability": "nonpayable",
      "type": "function"
    }
  ],
  "bytecode": "0x6080604052600a80553480156200001557600080fd5b50604051620035123803806200351283398181016040528101906200003b9190620002d0565b6040518060400160405280600a81526020017f4861636b446170706572000000000000000000000000000000000000000000008152506040518060400160405280600481526020017f48616b44000000000000000000000000000000000000000000000000000000008152508160009081620000b891906200057c565b508060019081620000ca91906200057c565b505050620000ed620000e16200019860201b60201c565b620001a060201b60201c565b80600860006101000a81548173ffffffffffffffffffffffffffffffffffffffff021916908373ffffffffffffffffffffffffffffffffffffffff160217905550600860009054906101000a900473ffffffffffffffffffffffffffffffffffffffff16600960006101000a81548173ffffffffffffffffffffffffffffffffffffffff021916908373ffffffffffffffffffffffffffffffffffffffff1602179055505062000663565b600033905090565b6000600660009054906101000a900473ffffffffffffffffffffffffffffffffffffffff16905081600660006101000a81548173ffffffffffffffffffffffffffffffffffffffff021916908373ffffffffffffffffffffffffffffffffffffffff1602179055508173ffffffffffffffffffffffffffffffffffffffff168173ffffffffffffffffffffffffffffffffffffffff167f8be0079c531659141344cd1fd0a4f28419497f9722a3daafe3b4186f6b6457e060405160405180910390a35050565b600080fd5b600073ffffffffffffffffffffffffffffffffffffffff82169050919050565b600062000298826200026b565b9050919050565b620002aa816200028b565b8114620002b657600080fd5b50565b600081519050620002ca816200029f565b92915050565b600060208284031215620002e957620002e862000266565b5b6000620002f984828501620002b9565b91505092915050565b600081519050919050565b7f4e487b7100000000000000000000000000000000000000000000000000000000600052604160045260246000fd5b7f4e487b7100000000000000000000000000000000000000000000000000000000600052602260045260246000fd5b600060028204905060018216806200038457607f821691505b6020821081036200039a57620003996200033c565b5b50919050565b60008190508160005260206000209050919050565b60006020601f8301049050919050565b600082821b905092915050565b600060088302620004047fffffffffffffffffffffffffffffffffffffffffffffffffffffffffffffffff82620003c5565b620004108683620003c5565b95508019841693508086168417925050509392505050565b6000819050919050565b6000819050919050565b60006200045d62000457620004518462000428565b62000432565b62000428565b9050919050565b6000819050919050565b62000479836200043c565b62000491620004888262000464565b848454620003d2565b825550505050565b600090565b620004a862000499565b620004b58184846200046e565b505050565b5b81811015620004dd57620004d16000826200049e565b600181019050620004bb565b5050565b601f8211156200052c57620004f681620003a0565b6200050184620003b5565b8101602085101562000511578190505b620005296200052085620003b5565b830182620004ba565b50505b505050565b600082821c905092915050565b6000620005516000198460080262000531565b1980831691505092915050565b60006200056c83836200053e565b9150826002028217905092915050565b620005878262000302565b67ffffffffffffffff811115620005a357620005a26200030d565b5b620005af82546200036b565b620005bc828285620004e1565b600060209050601f831160018114620005f45760008415620005df578287015190505b620005eb85826200055e565b8655506200065b565b601f1984166200060486620003a0565b60005b828110156200062e5784890151825560018201915060208501945060208101905062000607565b868310156200064e57848901516200064a601f8916826200053e565b8355505b6001600288020188555050505b505050505050565b612e9f80620006736000396000f3fe608060405234801561001057600080fd5b506004361061012c5760003560e01c8063715018a6116100ad578063b88d4fde11610071578063b88d4fde1461031d578063c002d23d14610339578063c87b56dd14610357578063e985e9c514610387578063f2fde38b146103b75761012c565b8063715018a61461029d5780638da5cb5b146102a757806395d89b41146102c55780639d76ea58146102e3578063a22cb465146103015761012c565b806323b872dd116100f457806323b872dd146101e957806340d097c31461020557806342842e0e146102215780636352211e1461023d57806370a082311461026d5761012c565b806301ffc9a71461013157806306fdde0314610161578063081812fc1461017f578063095ea7b3146101af5780631e9c8c1c146101cb575b600080fd5b61014b60048036038101906101469190611e16565b6103d3565b6040516101589190611e5e565b60405180910390f35b6101696104b5565b6040516101769190611f09565b60405180910390f35b61019960048036038101906101949190611f61565b610547565b6040516101a69190611fcf565b60405180910390f35b6101c960048036038101906101c49190612016565b61058d565b005b6101d36106a4565b6040516101e091906120b5565b60405180910390f35b61020360048036038101906101fe91906120d0565b6106ca565b005b61021f600480360381019061021a9190612123565b61072a565b005b61023b600480360381019061023691906120d0565b6108de565b005b61025760048036038101906102529190611f61565b6108fe565b6040516102649190611fcf565b60405180910390f35b61028760048036038101906102829190612123565b610984565b604051610294919061215f565b60405180910390f35b6102a5610a3b565b005b6102af610a4f565b6040516102bc9190611fcf565b60405180910390f35b6102cd610a79565b6040516102da9190611f09565b60405180910390f35b6102eb610b0b565b6040516102f89190611fcf565b60405180910390f35b61031b600480360381019061031691906121a6565b610b31565b005b6103376004803603810190610332919061231b565b610b47565b005b610341610ba9565b60405161034e919061215f565b60405180910390f35b610371600480360381019061036c9190611f61565b610baf565b60405161037e9190611f09565b60405180910390f35b6103a1600480360381019061039c919061239e565b610c17565b6040516103ae9190611e5e565b60405180910390f35b6103d160048036038101906103cc9190612123565b610cab565b005b60007f80ac58cd000000000000000000000000000000000000000000000000000000007bffffffffffffffffffffffffffffffffffffffffffffffffffffffff1916827bffffffffffffffffffffffffffffffffffffffffffffffffffffffff1916148061049e57507f5b5e139f000000000000000000000000000000000000000000000000000000007bffffffffffffffffffffffffffffffffffffffffffffffffffffffff1916827bffffffffffffffffffffffffffffffffffffffffffffffffffffffff1916145b806104ae57506104ad82610d2e565b5b9050919050565b6060600080546104c49061240d565b80601f01602080910402602001604051908101604052809291908181526020018280546104f09061240d565b801561053d5780601f106105125761010080835404028352916020019161053d565b820191906000526020600020905b81548152906001019060200180831161052057829003601f168201915b5050505050905090565b600061055282610d98565b6004600083815260200190815260200160002060009054906101000a900473ffffffffffffffffffffffffffffffffffffffff169050919050565b6000610598826108fe565b90508073ffffffffffffffffffffffffffffffffffffffff168373ffffffffffffffffffffffffffffffffffffffff1603610608576040517f08c379a00000000000000000000000000000000000000000000000000000000081526004016105ff906124b0565b60405180910390fd5b8073ffffffffffffffffffffffffffffffffffffffff16610627610de3565b73ffffffffffffffffffffffffffffffffffffffff161480610656575061065581610650610de3565b610c17565b5b610695576040517f08c379a000000000000000000000000000000000000000000000000000000000815260040161068c90612542565b60405180910390fd5b61069f8383610deb565b505050565b600960009054906101000a900473ffffffffffffffffffffffffffffffffffffffff1681565b6106db6106d5610de3565b82610ea4565b61071a576040517f08c379a0000000000000000000000000000000000000000000000000000000008152600401610711906125d4565b60405180910390fd5b610725838383610f39565b505050565b610732611232565b600a54600960009054906101000a900473ffffffffffffffffffffffffffffffffffffffff1673ffffffffffffffffffffffffffffffffffffffff1663dd62ed3e33306040518363ffffffff1660e01b81526004016107929291906125f4565b602060405180830381865afa1580156107af573d6000803e3d6000fd5b505050506040513d601f19601f820116820180604052508101906107d39190612632565b14610813576040517f08c379a000000000000000000000000000000000000000000000000000000000815260040161080a906126d1565b60405180910390fd5b600960009054906101000a900473ffffffffffffffffffffffffffffffffffffffff1673ffffffffffffffffffffffffffffffffffffffff166323b872dd3330600a546040518463ffffffff1660e01b8152600401610874939291906126f1565b6020604051808303816000875af1158015610893573d6000803e3d6000fd5b505050506040513d601f19601f820116820180604052508101906108b7919061273d565b5060006108c460076112b0565b90506108d060076112be565b6108da82826112d4565b5050565b6108f983838360405180602001604052806000815250610b47565b505050565b60008061090a836112f2565b9050600073ffffffffffffffffffffffffffffffffffffffff168173ffffffffffffffffffffffffffffffffffffffff160361097b576040517f08c379a0000000000000000000000000000000000000000000000000000000008152600401610972906127b6565b60405180910390fd5b80915050919050565b60008073ffffffffffffffffffffffffffffffffffffffff168273ffffffffffffffffffffffffffffffffffffffff16036109f4576040517f08c379a00000000000000000000000000000000000000000000000000000000081526004016109eb90612848565b60405180910390fd5b600360008373ffffffffffffffffffffffffffffffffffffffff1673ffffffffffffffffffffffffffffffffffffffff168152602001908152602001600020549050919050565b610a43611232565b610a4d600061132f565b565b6000600660009054906101000a900473ffffffffffffffffffffffffffffffffffffffff16905090565b606060018054610a889061240d565b80601f0160208091040260200160405190810160405280929190818152602001828054610ab49061240d565b8015610b015780601f10610ad657610100808354040283529160200191610b01565b820191906000526020600020905b815481529060010190602001808311610ae457829003601f168201915b5050505050905090565b600860009054906101000a900473ffffffffffffffffffffffffffffffffffffffff1681565b610b43610b3c610de3565b83836113f5565b5050565b610b58610b52610de3565b83610ea4565b610b97576040517f08c379a0000000000000000000000000000000000000000000000000000000008152600401610b8e906125d4565b60405180910390fd5b610ba384848484611561565b50505050565b600a5481565b6060610bba82610d98565b6000610bc46115bd565b90506000815111610be45760405180602001604052806000815250610c0f565b80610bee846115fa565b604051602001610bff9291906128a4565b6040516020818303038152906040525b915050919050565b6000600560008473ffffffffffffffffffffffffffffffffffffffff1673ffffffffffffffffffffffffffffffffffffffff16815260200190815260200160002060008373ffffffffffffffffffffffffffffffffffffffff1673ffffffffffffffffffffffffffffffffffffffff16815260200190815260200160002060009054906101000a900460ff16905092915050565b610cb3611232565b600073ffffffffffffffffffffffffffffffffffffffff168173ffffffffffffffffffffffffffffffffffffffff1603610d22576040517f08c379a0000000000000000000000000000000000000000000000000000000008152600401610d199061293a565b60405180910390fd5b610d2b8161132f565b50565b60007f01ffc9a7000000000000000000000000000000000000000000000000000000007bffffffffffffffffffffffffffffffffffffffffffffffffffffffff1916827bffffffffffffffffffffffffffffffffffffffffffffffffffffffff1916149050919050565b610da1816116c8565b610de0576040517f08c379a0000000000000000000000000000000000000000000000000000000008152600401610dd7906127b6565b60405180910390fd5b50565b600033905090565b816004600083815260200190815260200160002060006101000a81548173ffffffffffffffffffffffffffffffffffffffff021916908373ffffffffffffffffffffffffffffffffffffffff160217905550808273ffffffffffffffffffffffffffffffffffffffff16610e5e836108fe565b73ffffffffffffffffffffffffffffffffffffffff167f8c5be1e5ebec7d5bd14f71427d1e84f3dd0314c0f7b2291e5b200ac8c7c3b92560405160405180910390a45050565b600080610eb0836108fe565b90508073ffffffffffffffffffffffffffffffffffffffff168473ffffffffffffffffffffffffffffffffffffffff161480610ef25750610ef18185610c17565b5b80610f3057508373ffffffffffffffffffffffffffffffffffffffff16610f1884610547565b73ffffffffffffffffffffffffffffffffffffffff16145b91505092915050565b8273ffffffffffffffffffffffffffffffffffffffff16610f59826108fe565b73ffffffffffffffffffffffffffffffffffffffff1614610faf576040517f08c379a0000000000000000000000000000000000000000000000000000000008152600401610fa6906129cc565b60405180910390fd5b600073ffffffffffffffffffffffffffffffffffffffff168273ffffffffffffffffffffffffffffffffffffffff160361101e576040517f08c379a000000000000000000000000000000000000000000000000000000000815260040161101590612a5e565b60405180910390fd5b61102b8383836001611709565b8273ffffffffffffffffffffffffffffffffffffffff1661104b826108fe565b73ffffffffffffffffffffffffffffffffffffffff16146110a1576040517f08c379a0000000000000000000000000000000000000000000000000000000008152600401611098906129cc565b60405180910390fd5b6004600082815260200190815260200160002060006101000a81549073ffffffffffffffffffffffffffffffffffffffff02191690556001600360008573ffffffffffffffffffffffffffffffffffffffff1673ffffffffffffffffffffffffffffffffffffffff168152602001908152602001600020600082825403925050819055506001600360008473ffffffffffffffffffffffffffffffffffffffff1673ffffffffffffffffffffffffffffffffffffffff16815260200190815260200160002060008282540192505081905550816002600083815260200190815260200160002060006101000a81548173ffffffffffffffffffffffffffffffffffffffff021916908373ffffffffffffffffffffffffffffffffffffffff160217905550808273ffffffffffffffffffffffffffffffffffffffff168473ffffffffffffffffffffffffffffffffffffffff167fddf252ad1be2c89b69c2b068fc378daa952ba7f163c4a11628f55a4df523b3ef60405160405180910390a461122d838383600161182f565b505050565b61123a610de3565b73ffffffffffffffffffffffffffffffffffffffff16611258610a4f565b73ffffffffffffffffffffffffffffffffffffffff16146112ae576040517f08c379a00000000000000000000000000000000000000000000000000000000081526004016112a590612aca565b60405180910390fd5b565b600081600001549050919050565b6001816000016000828254019250508190555050565b6112ee828260405180602001604052806000815250611835565b5050565b60006002600083815260200190815260200160002060009054906101000a900473ffffffffffffffffffffffffffffffffffffffff169050919050565b6000600660009054906101000a900473ffffffffffffffffffffffffffffffffffffffff16905081600660006101000a81548173ffffffffffffffffffffffffffffffffffffffff021916908373ffffffffffffffffffffffffffffffffffffffff1602179055508173ffffffffffffffffffffffffffffffffffffffff168173ffffffffffffffffffffffffffffffffffffffff167f8be0079c531659141344cd1fd0a4f28419497f9722a3daafe3b4186f6b6457e060405160405180910390a35050565b8173ffffffffffffffffffffffffffffffffffffffff168373ffffffffffffffffffffffffffffffffffffffff1603611463576040517f08c379a000000000000000000000000000000000000000000000000000000000815260040161145a90612b36565b60405180910390fd5b80600560008573ffffffffffffffffffffffffffffffffffffffff1673ffffffffffffffffffffffffffffffffffffffff16815260200190815260200160002060008473ffffffffffffffffffffffffffffffffffffffff1673ffffffffffffffffffffffffffffffffffffffff16815260200190815260200160002060006101000a81548160ff0219169083151502179055508173ffffffffffffffffffffffffffffffffffffffff168373ffffffffffffffffffffffffffffffffffffffff167f17307eab39ab6107e8899845ad3d59bd9653f200f220920489ca2b5937696c31836040516115549190611e5e565b60405180910390a3505050565b61156c848484610f39565b61157884848484611890565b6115b7576040517f08c379a00000000000000000000000000000000000000000000000000000000081526004016115ae90612bc8565b60405180910390fd5b50505050565b60606040518060400160405280601e81526020017f687474703a2f2f6861636b642d646170702e74727566666c652e6c6162730000815250905090565b60606000600161160984611a17565b01905060008167ffffffffffffffff811115611628576116276121f0565b5b6040519080825280601f01601f19166020018201604052801561165a5781602001600182028036833780820191505090505b509050600082602001820190505b6001156116bd578080600190039150507f3031323334353637383961626364656600000000000000000000000000000000600a86061a8153600a85816116b1576116b0612be8565b5b04945060008503611668575b819350505050919050565b60008073ffffffffffffffffffffffffffffffffffffffff166116ea836112f2565b73ffffffffffffffffffffffffffffffffffffffff1614159050919050565b600181111561182957600073ffffffffffffffffffffffffffffffffffffffff168473ffffffffffffffffffffffffffffffffffffffff161461179d5780600360008673ffffffffffffffffffffffffffffffffffffffff1673ffffffffffffffffffffffffffffffffffffffff16815260200190815260200160002060008282546117959190612c46565b925050819055505b600073ffffffffffffffffffffffffffffffffffffffff168373ffffffffffffffffffffffffffffffffffffffff16146118285780600360008573ffffffffffffffffffffffffffffffffffffffff1673ffffffffffffffffffffffffffffffffffffffff16815260200190815260200160002060008282546118209190612c7a565b925050819055505b5b50505050565b50505050565b61183f8383611b6a565b61184c6000848484611890565b61188b576040517f08c379a000000000000000000000000000000000000000000000000000000000815260040161188290612bc8565b60405180910390fd5b505050565b60006118b18473ffffffffffffffffffffffffffffffffffffffff16611d87565b15611a0a578373ffffffffffffffffffffffffffffffffffffffff1663150b7a026118da610de3565b8786866040518563ffffffff1660e01b81526004016118fc9493929190612d03565b6020604051808303816000875af192505050801561193857506040513d601f19601f820116820180604052508101906119359190612d64565b60015b6119ba573d8060008114611968576040519150601f19603f3d011682016040523d82523d6000602084013e61196d565b606091505b5060008151036119b2576040517f08c379a00000000000000000000000000000000000000000000000000000000081526004016119a990612bc8565b60405180910390fd5b805181602001fd5b63150b7a0260e01b7bffffffffffffffffffffffffffffffffffffffffffffffffffffffff1916817bffffffffffffffffffffffffffffffffffffffffffffffffffffffff191614915050611a0f565b600190505b949350505050565b600080600090507a184f03e93ff9f4daa797ed6e38ed64bf6a1f0100000000000000008310611a75577a184f03e93ff9f4daa797ed6e38ed64bf6a1f0100000000000000008381611a6b57611a6a612be8565b5b0492506040810190505b6d04ee2d6d415b85acef81000000008310611ab2576d04ee2d6d415b85acef81000000008381611aa857611aa7612be8565b5b0492506020810190505b662386f26fc100008310611ae157662386f26fc100008381611ad757611ad6612be8565b5b0492506010810190505b6305f5e1008310611b0a576305f5e1008381611b0057611aff612be8565b5b0492506008810190505b6127108310611b2f576127108381611b2557611b24612be8565b5b0492506004810190505b60648310611b525760648381611b4857611b47612be8565b5b0492506002810190505b600a8310611b61576001810190505b80915050919050565b600073ffffffffffffffffffffffffffffffffffffffff168273ffffffffffffffffffffffffffffffffffffffff1603611bd9576040517f08c379a0000000000000000000000000000000000000000000000000000000008152600401611bd090612ddd565b60405180910390fd5b611be2816116c8565b15611c22576040517f08c379a0000000000000000000000000000000000000000000000000000000008152600401611c1990612e49565b60405180910390fd5b611c30600083836001611709565b611c39816116c8565b15611c79576040517f08c379a0000000000000000000000000000000000000000000000000000000008152600401611c7090612e49565b60405180910390fd5b6001600360008473ffffffffffffffffffffffffffffffffffffffff1673ffffffffffffffffffffffffffffffffffffffff16815260200190815260200160002060008282540192505081905550816002600083815260200190815260200160002060006101000a81548173ffffffffffffffffffffffffffffffffffffffff021916908373ffffffffffffffffffffffffffffffffffffffff160217905550808273ffffffffffffffffffffffffffffffffffffffff16600073ffffffffffffffffffffffffffffffffffffffff167fddf252ad1be2c89b69c2b068fc378daa952ba7f163c4a11628f55a4df523b3ef60405160405180910390a4611d8360008383600161182f565b5050565b6000808273ffffffffffffffffffffffffffffffffffffffff163b119050919050565b6000604051905090565b600080fd5b600080fd5b60007fffffffff0000000000000000000000000000000000000000000000000000000082169050919050565b611df381611dbe565b8114611dfe57600080fd5b50565b600081359050611e1081611dea565b92915050565b600060208284031215611e2c57611e2b611db4565b5b6000611e3a84828501611e01565b91505092915050565b60008115159050919050565b611e5881611e43565b82525050565b6000602082019050611e736000830184611e4f565b92915050565b600081519050919050565b600082825260208201905092915050565b60005b83811015611eb3578082015181840152602081019050611e98565b60008484015250505050565b6000601f19601f8301169050919050565b6000611edb82611e79565b611ee58185611e84565b9350611ef5818560208601611e95565b611efe81611ebf565b840191505092915050565b60006020820190508181036000830152611f238184611ed0565b905092915050565b6000819050919050565b611f3e81611f2b565b8114611f4957600080fd5b50565b600081359050611f5b81611f35565b92915050565b600060208284031215611f7757611f76611db4565b5b6000611f8584828501611f4c565b91505092915050565b600073ffffffffffffffffffffffffffffffffffffffff82169050919050565b6000611fb982611f8e565b9050919050565b611fc981611fae565b82525050565b6000602082019050611fe46000830184611fc0565b92915050565b611ff381611fae565b8114611ffe57600080fd5b50565b60008135905061201081611fea565b92915050565b6000806040838503121561202d5761202c611db4565b5b600061203b85828601612001565b925050602061204c85828601611f4c565b9150509250929050565b6000819050919050565b600061207b61207661207184611f8e565b612056565b611f8e565b9050919050565b600061208d82612060565b9050919050565b600061209f82612082565b9050919050565b6120af81612094565b82525050565b60006020820190506120ca60008301846120a6565b92915050565b6000806000606084860312156120e9576120e8611db4565b5b60006120f786828701612001565b935050602061210886828701612001565b925050604061211986828701611f4c565b9150509250925092565b60006020828403121561213957612138611db4565b5b600061214784828501612001565b91505092915050565b61215981611f2b565b82525050565b60006020820190506121746000830184612150565b92915050565b61218381611e43565b811461218e57600080fd5b50565b6000813590506121a08161217a565b92915050565b600080604083850312156121bd576121bc611db4565b5b60006121cb85828601612001565b92505060206121dc85828601612191565b9150509250929050565b600080fd5b600080fd5b7f4e487b7100000000000000000000000000000000000000000000000000000000600052604160045260246000fd5b61222882611ebf565b810181811067ffffffffffffffff82111715612247576122466121f0565b5b80604052505050565b600061225a611daa565b9050612266828261221f565b919050565b600067ffffffffffffffff821115612286576122856121f0565b5b61228f82611ebf565b9050602081019050919050565b82818337600083830152505050565b60006122be6122b98461226b565b612250565b9050828152602081018484840111156122da576122d96121eb565b5b6122e584828561229c565b509392505050565b600082601f830112612302576123016121e6565b5b81356123128482602086016122ab565b91505092915050565b6000806000806080858703121561233557612334611db4565b5b600061234387828801612001565b945050602061235487828801612001565b935050604061236587828801611f4c565b925050606085013567ffffffffffffffff81111561238657612385611db9565b5b612392878288016122ed565b91505092959194509250565b600080604083850312156123b5576123b4611db4565b5b60006123c385828601612001565b92505060206123d485828601612001565b9150509250929050565b7f4e487b7100000000000000000000000000000000000000000000000000000000600052602260045260246000fd5b6000600282049050600182168061242557607f821691505b602082108103612438576124376123de565b5b50919050565b7f4552433732313a20617070726f76616c20746f2063757272656e74206f776e6560008201527f7200000000000000000000000000000000000000000000000000000000000000602082015250565b600061249a602183611e84565b91506124a58261243e565b604082019050919050565b600060208201905081810360008301526124c98161248d565b9050919050565b7f4552433732313a20617070726f76652063616c6c6572206973206e6f7420746f60008201527f6b656e206f776e6572206f7220617070726f76656420666f7220616c6c000000602082015250565b600061252c603d83611e84565b9150612537826124d0565b604082019050919050565b6000602082019050818103600083015261255b8161251f565b9050919050565b7f4552433732313a2063616c6c6572206973206e6f7420746f6b656e206f776e6560008201527f72206f7220617070726f76656400000000000000000000000000000000000000602082015250565b60006125be602d83611e84565b91506125c982612562565b604082019050919050565b600060208201905081810360008301526125ed816125b1565b9050919050565b60006040820190506126096000830185611fc0565b6126166020830184611fc0565b9392505050565b60008151905061262c81611f35565b92915050565b60006020828403121561264857612647611db4565b5b60006126568482850161261d565b91505092915050565b7f4e6f7420656e6f756768206f66205061796d656e7420546f6b656e2e2047657460008201527f20536f6d65206d6f726521000000000000000000000000000000000000000000602082015250565b60006126bb602b83611e84565b91506126c68261265f565b604082019050919050565b600060208201905081810360008301526126ea816126ae565b9050919050565b60006060820190506127066000830186611fc0565b6127136020830185611fc0565b6127206040830184612150565b949350505050565b6000815190506127378161217a565b92915050565b60006020828403121561275357612752611db4565b5b600061276184828501612728565b91505092915050565b7f4552433732313a20696e76616c696420746f6b656e2049440000000000000000600082015250565b60006127a0601883611e84565b91506127ab8261276a565b602082019050919050565b600060208201905081810360008301526127cf81612793565b9050919050565b7f4552433732313a2061646472657373207a65726f206973206e6f74206120766160008201527f6c6964206f776e65720000000000000000000000000000000000000000000000602082015250565b6000612832602983611e84565b915061283d826127d6565b604082019050919050565b6000602082019050818103600083015261286181612825565b9050919050565b600081905092915050565b600061287e82611e79565b6128888185612868565b9350612898818560208601611e95565b80840191505092915050565b60006128b08285612873565b91506128bc8284612873565b91508190509392505050565b7f4f776e61626c653a206e6577206f776e657220697320746865207a65726f206160008201527f6464726573730000000000000000000000000000000000000000000000000000602082015250565b6000612924602683611e84565b915061292f826128c8565b604082019050919050565b6000602082019050818103600083015261295381612917565b9050919050565b7f4552433732313a207472616e736665722066726f6d20696e636f72726563742060008201527f6f776e6572000000000000000000000000000000000000000000000000000000602082015250565b60006129b6602583611e84565b91506129c18261295a565b604082019050919050565b600060208201905081810360008301526129e5816129a9565b9050919050565b7f4552433732313a207472616e7366657220746f20746865207a65726f2061646460008201527f7265737300000000000000000000000000000000000000000000000000000000602082015250565b6000612a48602483611e84565b9150612a53826129ec565b604082019050919050565b60006020820190508181036000830152612a7781612a3b565b9050919050565b7f4f776e61626c653a2063616c6c6572206973206e6f7420746865206f776e6572600082015250565b6000612ab4602083611e84565b9150612abf82612a7e565b602082019050919050565b60006020820190508181036000830152612ae381612aa7565b9050919050565b7f4552433732313a20617070726f766520746f2063616c6c657200000000000000600082015250565b6000612b20601983611e84565b9150612b2b82612aea565b602082019050919050565b60006020820190508181036000830152612b4f81612b13565b9050919050565b7f4552433732313a207472616e7366657220746f206e6f6e20455243373231526560008201527f63656976657220696d706c656d656e7465720000000000000000000000000000602082015250565b6000612bb2603283611e84565b9150612bbd82612b56565b604082019050919050565b60006020820190508181036000830152612be181612ba5565b9050919050565b7f4e487b7100000000000000000000000000000000000000000000000000000000600052601260045260246000fd5b7f4e487b7100000000000000000000000000000000000000000000000000000000600052601160045260246000fd5b6000612c5182611f2b565b9150612c5c83611f2b565b9250828203905081811115612c7457612c73612c17565b5b92915050565b6000612c8582611f2b565b9150612c9083611f2b565b9250828201905080821115612ca857612ca7612c17565b5b92915050565b600081519050919050565b600082825260208201905092915050565b6000612cd582612cae565b612cdf8185612cb9565b9350612cef818560208601611e95565b612cf881611ebf565b840191505092915050565b6000608082019050612d186000830187611fc0565b612d256020830186611fc0565b612d326040830185612150565b8181036060830152612d448184612cca565b905095945050505050565b600081519050612d5e81611dea565b92915050565b600060208284031215612d7a57612d79611db4565b5b6000612d8884828501612d4f565b91505092915050565b7f4552433732313a206d696e7420746f20746865207a65726f2061646472657373600082015250565b6000612dc7602083611e84565b9150612dd282612d91565b602082019050919050565b60006020820190508181036000830152612df681612dba565b9050919050565b7f4552433732313a20746f6b656e20616c7265616479206d696e74656400000000600082015250565b6000612e33601c83611e84565b9150612e3e82612dfd565b602082019050919050565b60006020820190508181036000830152612e6281612e26565b905091905056fea264697066735822122070dc9958ee3ac02a7e2d0886eedb3edba1fc03c61964530d1e17d9c9b982bec164736f6c63430008110033",
  "immutableReferences": {},
  "source": "// SPDX-License-Identifier: MIT\npragma solidity ^0.8.9;\n\nimport \"@openzeppelin/contracts/token/ERC20/ERC20.sol\";\nimport \"@openzeppelin/contracts/token/ERC721/ERC721.sol\";\nimport \"@openzeppelin/contracts/access/Ownable.sol\";\nimport \"@openzeppelin/contracts/utils/Counters.sol\";\n\ncontract HackDapper is ERC721, Ownable {\n    using Counters for Counters.Counter;\n\n    Counters.Counter private _tokenIdCounter;\n\n    address public tokenAddress;\n    ERC20 public PaymentToken;\n    uint256 public MINT_PRICE = 10;\n\n    constructor(address _tokenAddress) ERC721(\"HackDapper\", \"HakD\") {\n        tokenAddress = _tokenAddress;\n        PaymentToken = ERC20(tokenAddress);\n    }\n\n    function _baseURI() internal pure override returns (string memory) {\n        return \"http://hackd-dapp.truffle.labs\";\n    }\n\n    /**\n     * @notice safelyMint some tokens and ensure we have enough of the payment token allowance to buy.\n     * you need MINT_PRICE (10) of these tokens to do this.\n     */\n    function safeMint(address to) public onlyOwner {\n        require(PaymentToken.allowance(msg.sender, address(this)) == MINT_PRICE, \"Not enough of Payment Token. Get Some more!\");\n        PaymentToken.transferFrom(msg.sender, address(this), MINT_PRICE);\n        uint256 tokenId = _tokenIdCounter.current();\n        _tokenIdCounter.increment();\n        _safeMint(to, tokenId);\n    }\n}\n",
  "sourcePath": "/Users/mb/dev/truffle-boxes/security-starter-box/packages/common-contracts/contracts/HackDapperNFT.sol",
  "compiler": {
    "name": "solc",
    "version": "0.8.17+commit.8df45f5f.Emscripten.clang"
  },
  "schemaVersion": "3.4.11",
  "updatedAt": "2022-12-09T01:21:47.149Z",
  "networkType": "ethereum",
  "devdoc": {
    "kind": "dev",
    "methods": {
      "approve(address,uint256)": {
        "details": "See {IERC721-approve}."
      },
      "balanceOf(address)": {
        "details": "See {IERC721-balanceOf}."
      },
      "getApproved(uint256)": {
        "details": "See {IERC721-getApproved}."
      },
      "isApprovedForAll(address,address)": {
        "details": "See {IERC721-isApprovedForAll}."
      },
      "name()": {
        "details": "See {IERC721Metadata-name}."
      },
      "owner()": {
        "details": "Returns the address of the current owner."
      },
      "ownerOf(uint256)": {
        "details": "See {IERC721-ownerOf}."
      },
      "renounceOwnership()": {
        "details": "Leaves the contract without owner. It will not be possible to call `onlyOwner` functions anymore. Can only be called by the current owner. NOTE: Renouncing ownership will leave the contract without an owner, thereby removing any functionality that is only available to the owner."
      },
      "safeTransferFrom(address,address,uint256)": {
        "details": "See {IERC721-safeTransferFrom}."
      },
      "safeTransferFrom(address,address,uint256,bytes)": {
        "details": "See {IERC721-safeTransferFrom}."
      },
      "setApprovalForAll(address,bool)": {
        "details": "See {IERC721-setApprovalForAll}."
      },
      "supportsInterface(bytes4)": {
        "details": "See {IERC165-supportsInterface}."
      },
      "symbol()": {
        "details": "See {IERC721Metadata-symbol}."
      },
      "tokenURI(uint256)": {
        "details": "See {IERC721Metadata-tokenURI}."
      },
      "transferFrom(address,address,uint256)": {
        "details": "See {IERC721-transferFrom}."
      },
      "transferOwnership(address)": {
        "details": "Transfers ownership of the contract to a new account (`newOwner`). Can only be called by the current owner."
      }
    },
    "version": 1
  },
  "userdoc": {
    "kind": "user",
    "methods": {
      "safeMint(address)": {
        "notice": "safelyMint some tokens and ensure we have enough of the payment token allowance to buy. you need MINT_PRICE (10) of these tokens to do this."
      }
    },
    "version": 1
  }
}