{
  "contractName": "Hospo",
  "abi": [
    {
      "inputs": [],
      "stateMutability": "nonpayable",
      "type": "constructor"
    },
    {
      "anonymous": false,
      "inputs": [
        {
          "indexed": true,
          "internalType": "address",
          "name": "owner",
          "type": "address"
        },
        {
          "indexed": true,
          "internalType": "address",
          "name": "spender",
          "type": "address"
        },
        {
          "indexed": false,
          "internalType": "uint256",
          "name": "value",
          "type": "uint256"
        }
      ],
      "name": "Approval",
      "type": "event"
    },
    {
      "anonymous": false,
      "inputs": [
        {
          "indexed": true,
          "internalType": "address",
          "name": "account",
          "type": "address"
        },
        {
          "indexed": false,
          "internalType": "bool",
          "name": "isExcluded",
          "type": "bool"
        }
      ],
      "name": "ExcludeFromFees",
      "type": "event"
    },
    {
      "anonymous": false,
      "inputs": [
        {
          "indexed": false,
          "internalType": "address[]",
          "name": "accounts",
          "type": "address[]"
        },
        {
          "indexed": false,
          "internalType": "bool",
          "name": "isExcluded",
          "type": "bool"
        }
      ],
      "name": "ExcludeMultipleAccountsFromFees",
      "type": "event"
    },
    {
      "anonymous": false,
      "inputs": [
        {
          "indexed": true,
          "internalType": "address",
          "name": "previousOwner",
          "type": "address"
        },
        {
          "indexed": true,
          "internalType": "address",
          "name": "newOwner",
          "type": "address"
        }
      ],
      "name": "OwnershipTransferred",
      "type": "event"
    },
    {
      "anonymous": false,
      "inputs": [
        {
          "indexed": true,
          "internalType": "address",
          "name": "pair",
          "type": "address"
        },
        {
          "indexed": true,
          "internalType": "bool",
          "name": "value",
          "type": "bool"
        }
      ],
      "name": "SetAutomatedMarketMakerPair",
      "type": "event"
    },
    {
      "anonymous": false,
      "inputs": [
        {
          "indexed": false,
          "internalType": "uint256",
          "name": "tokensSwapped",
          "type": "uint256"
        },
        {
          "indexed": false,
          "internalType": "uint256",
          "name": "ethReceived",
          "type": "uint256"
        },
        {
          "indexed": false,
          "internalType": "uint256",
          "name": "tokensIntoLiqudity",
          "type": "uint256"
        }
      ],
      "name": "SwapAndLiquify",
      "type": "event"
    },
    {
      "anonymous": false,
      "inputs": [
        {
          "indexed": true,
          "internalType": "address",
          "name": "from",
          "type": "address"
        },
        {
          "indexed": true,
          "internalType": "address",
          "name": "to",
          "type": "address"
        },
        {
          "indexed": false,
          "internalType": "uint256",
          "name": "value",
          "type": "uint256"
        }
      ],
      "name": "Transfer",
      "type": "event"
    },
    {
      "anonymous": false,
      "inputs": [
        {
          "indexed": true,
          "internalType": "address",
          "name": "newAddress",
          "type": "address"
        },
        {
          "indexed": true,
          "internalType": "address",
          "name": "oldAddress",
          "type": "address"
        }
      ],
      "name": "UpdateDividendTracker",
      "type": "event"
    },
    {
      "anonymous": false,
      "inputs": [
        {
          "indexed": true,
          "internalType": "address",
          "name": "newAddress",
          "type": "address"
        },
        {
          "indexed": true,
          "internalType": "address",
          "name": "oldAddress",
          "type": "address"
        }
      ],
      "name": "UpdateUniswapV2Router",
      "type": "event"
    },
    {
      "inputs": [],
      "name": "BLOCKCOUNT",
      "outputs": [
        {
          "internalType": "uint8",
          "name": "",
          "type": "uint8"
        }
      ],
      "stateMutability": "view",
      "type": "function"
    },
    {
      "inputs": [],
      "name": "_devWallet",
      "outputs": [
        {
          "internalType": "address payable",
          "name": "",
          "type": "address"
        }
      ],
      "stateMutability": "view",
      "type": "function"
    },
    {
      "inputs": [
        {
          "internalType": "address",
          "name": "",
          "type": "address"
        }
      ],
      "name": "_isBlackListed",
      "outputs": [
        {
          "internalType": "bool",
          "name": "",
          "type": "bool"
        }
      ],
      "stateMutability": "view",
      "type": "function"
    },
    {
      "inputs": [
        {
          "internalType": "address",
          "name": "owner",
          "type": "address"
        },
        {
          "internalType": "address",
          "name": "spender",
          "type": "address"
        }
      ],
      "name": "allowance",
      "outputs": [
        {
          "internalType": "uint256",
          "name": "",
          "type": "uint256"
        }
      ],
      "stateMutability": "view",
      "type": "function"
    },
    {
      "inputs": [
        {
          "internalType": "address",
          "name": "spender",
          "type": "address"
        },
        {
          "internalType": "uint256",
          "name": "amount",
          "type": "uint256"
        }
      ],
      "name": "approve",
      "outputs": [
        {
          "internalType": "bool",
          "name": "",
          "type": "bool"
        }
      ],
      "stateMutability": "nonpayable",
      "type": "function"
    },
    {
      "inputs": [
        {
          "internalType": "address",
          "name": "",
          "type": "address"
        }
      ],
      "name": "automatedMarketMakerPairs",
      "outputs": [
        {
          "internalType": "bool",
          "name": "",
          "type": "bool"
        }
      ],
      "stateMutability": "view",
      "type": "function"
    },
    {
      "inputs": [
        {
          "internalType": "address",
          "name": "account",
          "type": "address"
        }
      ],
      "name": "balanceOf",
      "outputs": [
        {
          "internalType": "uint256",
          "name": "",
          "type": "uint256"
        }
      ],
      "stateMutability": "view",
      "type": "function"
    },
    {
      "inputs": [],
      "name": "buyFee",
      "outputs": [
        {
          "internalType": "uint16",
          "name": "devFee",
          "type": "uint16"
        },
        {
          "internalType": "uint16",
          "name": "liquidityFee",
          "type": "uint16"
        }
      ],
      "stateMutability": "view",
      "type": "function"
    },
    {
      "inputs": [],
      "name": "dailyCap",
      "outputs": [
        {
          "internalType": "uint256",
          "name": "",
          "type": "uint256"
        }
      ],
      "stateMutability": "view",
      "type": "function"
    },
    {
      "inputs": [
        {
          "internalType": "address",
          "name": "spender",
          "type": "address"
        },
        {
          "internalType": "uint256",
          "name": "subtractedValue",
          "type": "uint256"
        }
      ],
      "name": "decreaseAllowance",
      "outputs": [
        {
          "internalType": "bool",
          "name": "",
          "type": "bool"
        }
      ],
      "stateMutability": "nonpayable",
      "type": "function"
    },
    {
      "inputs": [
        {
          "internalType": "address",
          "name": "spender",
          "type": "address"
        },
        {
          "internalType": "uint256",
          "name": "addedValue",
          "type": "uint256"
        }
      ],
      "name": "increaseAllowance",
      "outputs": [
        {
          "internalType": "bool",
          "name": "",
          "type": "bool"
        }
      ],
      "stateMutability": "nonpayable",
      "type": "function"
    },
    {
      "inputs": [],
      "name": "isAntiBotEnabled",
      "outputs": [
        {
          "internalType": "bool",
          "name": "",
          "type": "bool"
        }
      ],
      "stateMutability": "view",
      "type": "function"
    },
    {
      "inputs": [],
      "name": "isTradingEnabled",
      "outputs": [
        {
          "internalType": "bool",
          "name": "",
          "type": "bool"
        }
      ],
      "stateMutability": "view",
      "type": "function"
    },
    {
      "inputs": [],
      "name": "maxTxAmount",
      "outputs": [
        {
          "internalType": "uint256",
          "name": "",
          "type": "uint256"
        }
      ],
      "stateMutability": "view",
      "type": "function"
    },
    {
      "inputs": [],
      "name": "maxWalletAmount",
      "outputs": [
        {
          "internalType": "uint256",
          "name": "",
          "type": "uint256"
        }
      ],
      "stateMutability": "view",
      "type": "function"
    },
    {
      "inputs": [],
      "name": "name",
      "outputs": [
        {
          "internalType": "string",
          "name": "",
          "type": "string"
        }
      ],
      "stateMutability": "view",
      "type": "function"
    },
    {
      "inputs": [],
      "name": "owner",
      "outputs": [
        {
          "internalType": "address",
          "name": "",
          "type": "address"
        }
      ],
      "stateMutability": "view",
      "type": "function"
    },
    {
      "inputs": [],
      "name": "renounceOwnership",
      "outputs": [],
      "stateMutability": "nonpayable",
      "type": "function"
    },
    {
      "inputs": [],
      "name": "sellFee",
      "outputs": [
        {
          "internalType": "uint16",
          "name": "devFee",
          "type": "uint16"
        },
        {
          "internalType": "uint16",
          "name": "liquidityFee",
          "type": "uint16"
        }
      ],
      "stateMutability": "view",
      "type": "function"
    },
    {
      "inputs": [
        {
          "internalType": "address",
          "name": "",
          "type": "address"
        }
      ],
      "name": "soldTokenin24Hrs",
      "outputs": [
        {
          "internalType": "uint256",
          "name": "",
          "type": "uint256"
        }
      ],
      "stateMutability": "view",
      "type": "function"
    },
    {
      "inputs": [],
      "name": "swapTokensAtAmount",
      "outputs": [
        {
          "internalType": "uint256",
          "name": "",
          "type": "uint256"
        }
      ],
      "stateMutability": "view",
      "type": "function"
    },
    {
      "inputs": [],
      "name": "symbol",
      "outputs": [
        {
          "internalType": "string",
          "name": "",
          "type": "string"
        }
      ],
      "stateMutability": "view",
      "type": "function"
    },
    {
      "inputs": [],
      "name": "totalSupply",
      "outputs": [
        {
          "internalType": "uint256",
          "name": "",
          "type": "uint256"
        }
      ],
      "stateMutability": "view",
      "type": "function"
    },
    {
      "inputs": [],
      "name": "tradingStartBlock",
      "outputs": [
        {
          "internalType": "uint256",
          "name": "",
          "type": "uint256"
        }
      ],
      "stateMutability": "view",
      "type": "function"
    },
    {
      "inputs": [
        {
          "internalType": "address",
          "name": "to",
          "type": "address"
        },
        {
          "internalType": "uint256",
          "name": "amount",
          "type": "uint256"
        }
      ],
      "name": "transfer",
      "outputs": [
        {
          "internalType": "bool",
          "name": "",
          "type": "bool"
        }
      ],
      "stateMutability": "nonpayable",
      "type": "function"
    },
    {
      "inputs": [
        {
          "internalType": "address",
          "name": "from",
          "type": "address"
        },
        {
          "internalType": "address",
          "name": "to",
          "type": "address"
        },
        {
          "internalType": "uint256",
          "name": "amount",
          "type": "uint256"
        }
      ],
      "name": "transferFrom",
      "outputs": [
        {
          "internalType": "bool",
          "name": "",
          "type": "bool"
        }
      ],
      "stateMutability": "nonpayable",
      "type": "function"
    },
    {
      "inputs": [
        {
          "internalType": "address",
          "name": "newOwner",
          "type": "address"
        }
      ],
      "name": "transferOwnership",
      "outputs": [],
      "stateMutability": "nonpayable",
      "type": "function"
    },
    {
      "inputs": [],
      "name": "uniswapV2Pair",
      "outputs": [
        {
          "internalType": "address",
          "name": "",
          "type": "address"
        }
      ],
      "stateMutability": "view",
      "type": "function"
    },
    {
      "inputs": [],
      "name": "uniswapV2Router",
      "outputs": [
        {
          "internalType": "contract IUniswapV2Router02",
          "name": "",
          "type": "address"
        }
      ],
      "stateMutability": "view",
      "type": "function"
    },
    {
      "stateMutability": "payable",
      "type": "receive"
    },
    {
      "inputs": [],
      "name": "decimals",
      "outputs": [
        {
          "internalType": "uint8",
          "name": "",
          "type": "uint8"
        }
      ],
      "stateMutability": "view",
      "type": "function"
    },
    {
      "inputs": [
        {
          "internalType": "bool",
          "name": "value",
          "type": "bool"
        }
      ],
      "name": "setAntibot",
      "outputs": [],
      "stateMutability": "nonpayable",
      "type": "function"
    },
    {
      "inputs": [
        {
          "internalType": "address",
          "name": "account",
          "type": "address"
        },
        {
          "internalType": "uint256",
          "name": "amount",
          "type": "uint256"
        }
      ],
      "name": "burn",
      "outputs": [],
      "stateMutability": "nonpayable",
      "type": "function"
    },
    {
      "inputs": [
        {
          "internalType": "address",
          "name": "newAddress",
          "type": "address"
        }
      ],
      "name": "updateRouter",
      "outputs": [],
      "stateMutability": "nonpayable",
      "type": "function"
    },
    {
      "inputs": [
        {
          "internalType": "address",
          "name": "_token",
          "type": "address"
        }
      ],
      "name": "claimStuckTokens",
      "outputs": [],
      "stateMutability": "nonpayable",
      "type": "function"
    },
    {
      "inputs": [
        {
          "internalType": "address",
          "name": "account",
          "type": "address"
        },
        {
          "internalType": "bool",
          "name": "excluded",
          "type": "bool"
        }
      ],
      "name": "excludeFromFees",
      "outputs": [],
      "stateMutability": "nonpayable",
      "type": "function"
    },
    {
      "inputs": [
        {
          "internalType": "address[]",
          "name": "accounts",
          "type": "address[]"
        },
        {
          "internalType": "bool",
          "name": "excluded",
          "type": "bool"
        }
      ],
      "name": "excludeMultipleAccountsFromFees",
      "outputs": [],
      "stateMutability": "nonpayable",
      "type": "function"
    },
    {
      "inputs": [
        {
          "internalType": "address payable",
          "name": "wallet",
          "type": "address"
        }
      ],
      "name": "setDevWallet",
      "outputs": [],
      "stateMutability": "nonpayable",
      "type": "function"
    },
    {
      "inputs": [
        {
          "internalType": "uint256",
          "name": "value",
          "type": "uint256"
        }
      ],
      "name": "setSwapAtAmount",
      "outputs": [],
      "stateMutability": "nonpayable",
      "type": "function"
    },
    {
      "inputs": [
        {
          "internalType": "uint256",
          "name": "value",
          "type": "uint256"
        }
      ],
      "name": "setMaxWallet",
      "outputs": [],
      "stateMutability": "nonpayable",
      "type": "function"
    },
    {
      "inputs": [
        {
          "internalType": "uint256",
          "name": "value",
          "type": "uint256"
        }
      ],
      "name": "setMaxTx",
      "outputs": [],
      "stateMutability": "nonpayable",
      "type": "function"
    },
    {
      "inputs": [
        {
          "internalType": "address",
          "name": "addr",
          "type": "address"
        },
        {
          "internalType": "bool",
          "name": "value",
          "type": "bool"
        }
      ],
      "name": "setBlackList",
      "outputs": [],
      "stateMutability": "nonpayable",
      "type": "function"
    },
    {
      "inputs": [
        {
          "internalType": "uint256",
          "name": "value",
          "type": "uint256"
        }
      ],
      "name": "setDailyCap",
      "outputs": [],
      "stateMutability": "nonpayable",
      "type": "function"
    },
    {
      "inputs": [
        {
          "internalType": "address",
          "name": "pair",
          "type": "address"
        },
        {
          "internalType": "bool",
          "name": "value",
          "type": "bool"
        }
      ],
      "name": "setAutomatedMarketMakerPair",
      "outputs": [],
      "stateMutability": "nonpayable",
      "type": "function"
    },
    {
      "inputs": [
        {
          "internalType": "address",
          "name": "presaleAddress",
          "type": "address"
        }
      ],
      "name": "prepareForPresale",
      "outputs": [],
      "stateMutability": "nonpayable",
      "type": "function"
    },
    {
      "inputs": [],
      "name": "startTrading",
      "outputs": [],
      "stateMutability": "nonpayable",
      "type": "function"
    },
    {
      "inputs": [
        {
          "internalType": "address",
          "name": "account",
          "type": "address"
        }
      ],
      "name": "isExcludedFromFees",
      "outputs": [
        {
          "internalType": "bool",
          "name": "",
          "type": "bool"
        }
      ],
      "stateMutability": "view",
      "type": "function"
    },
    {
      "inputs": [
        {
          "internalType": "uint256",
          "name": "tokenAmount",
          "type": "uint256"
        },
        {
          "internalType": "uint256",
          "name": "ethAmount",
          "type": "uint256"
        }
      ],
      "name": "testSetup",
      "outputs": [],
      "stateMutability": "nonpayable",
      "type": "function"
    },
    {
      "inputs": [
        {
          "internalType": "uint256",
          "name": "amount",
          "type": "uint256"
        }
      ],
      "name": "getPriceOfToken",
      "outputs": [
        {
          "internalType": "uint256",
          "name": "price",
          "type": "uint256"
        }
      ],
      "stateMutability": "view",
      "type": "function"
    }
  ],
  "bytecode": "0x60806040526aa56fa5b99019a5c8000000600d556b4715f935bbeb053bf0000000600e556c02c6dbbc19572e345760000000600f556801158e460913d0000060105573b4ecfd43b81d13f9e511ee0ffd2d8a6bdfe76eef601360006101000a81548173ffffffffffffffffffffffffffffffffffffffff021916908373ffffffffffffffffffffffffffffffffffffffff160217905550348015620000a357600080fd5b506040518060400160405280600981526020017f486f73706f5769736500000000000000000000000000000000000000000000008152506040518060400160405280600581526020017f484f53504f000000000000000000000000000000000000000000000000000000815250816003908162000121919062000ccd565b50806004908162000133919062000ccd565b505050620001566200014a620004cd60201b60201c565b620004d560201b60201c565b6023600b60000160006101000a81548161ffff021916908361ffff160217905550600a600b60000160026101000a81548161ffff021916908361ffff160217905550602d600c60026101000a81548161ffff021916908361ffff1602179055506023600a60000160006101000a81548161ffff021916908361ffff160217905550600a8060000160026101000a81548161ffff021916908361ffff160217905550602d600c60006101000a81548161ffff021916908361ffff1602179055506000737a250d5630b4cf539739df2c5dacb4c659f2488d905060008173ffffffffffffffffffffffffffffffffffffffff1663c45a01556040518163ffffffff1660e01b8152600401602060405180830381865afa1580156200027c573d6000803e3d6000fd5b505050506040513d601f19601f82011682018060405250810190620002a2919062000e1e565b73ffffffffffffffffffffffffffffffffffffffff1663c9c65396308473ffffffffffffffffffffffffffffffffffffffff1663ad5c46486040518163ffffffff1660e01b8152600401602060405180830381865afa1580156200030a573d6000803e3d6000fd5b505050506040513d601f19601f8201168201806040525081019062000330919062000e1e565b6040518363ffffffff1660e01b81526004016200034f92919062000e61565b6020604051808303816000875af11580156200036f573d6000803e3d6000fd5b505050506040513d601f19601f8201168201806040525081019062000395919062000e1e565b905081600660006101000a81548173ffffffffffffffffffffffffffffffffffffffff021916908373ffffffffffffffffffffffffffffffffffffffff16021790555080600760006101000a81548173ffffffffffffffffffffffffffffffffffffffff021916908373ffffffffffffffffffffffffffffffffffffffff1602179055506200042c8160016200059b60201b60201c565b6200044e62000440620006d160201b60201c565b6001620006fb60201b60201c565b62000483601360009054906101000a900473ffffffffffffffffffffffffffffffffffffffff166001620006fb60201b60201c565b62000496306001620006fb60201b60201c565b620004c5620004aa620006d160201b60201c565b6d0115add579e61bed28d5276400006200084b60201b60201c565b505062001185565b600033905090565b6000600560009054906101000a900473ffffffffffffffffffffffffffffffffffffffff16905081600560006101000a81548173ffffffffffffffffffffffffffffffffffffffff021916908373ffffffffffffffffffffffffffffffffffffffff1602179055508173ffffffffffffffffffffffffffffffffffffffff168173ffffffffffffffffffffffffffffffffffffffff167f8be0079c531659141344cd1fd0a4f28419497f9722a3daafe3b4186f6b6457e060405160405180910390a35050565b801515601660008473ffffffffffffffffffffffffffffffffffffffff1673ffffffffffffffffffffffffffffffffffffffff16815260200190815260200160002060009054906101000a900460ff1615150362000630576040517f08c379a0000000000000000000000000000000000000000000000000000000008152600401620006279062000f15565b60405180910390fd5b80601660008473ffffffffffffffffffffffffffffffffffffffff1673ffffffffffffffffffffffffffffffffffffffff16815260200190815260200160002060006101000a81548160ff0219169083151502179055508015158273ffffffffffffffffffffffffffffffffffffffff167fffa9187bf1f18bf477bd0ea1bcbb64e93b6a98132473929edfce215cd9b16fab60405160405180910390a35050565b6000600560009054906101000a900473ffffffffffffffffffffffffffffffffffffffff16905090565b6200070b620009b860201b60201c565b801515601560008473ffffffffffffffffffffffffffffffffffffffff1673ffffffffffffffffffffffffffffffffffffffff16815260200190815260200160002060009054906101000a900460ff16151503620007a0576040517f08c379a0000000000000000000000000000000000000000000000000000000008152600401620007979062000fad565b60405180910390fd5b80601560008473ffffffffffffffffffffffffffffffffffffffff1673ffffffffffffffffffffffffffffffffffffffff16815260200190815260200160002060006101000a81548160ff0219169083151502179055508173ffffffffffffffffffffffffffffffffffffffff167f9d8f7706ea1113d1a167b526eca956215946dd36cc7df39eb16180222d8b5df7826040516200083f919062000fec565b60405180910390a25050565b600073ffffffffffffffffffffffffffffffffffffffff168273ffffffffffffffffffffffffffffffffffffffff1603620008bd576040517f08c379a0000000000000000000000000000000000000000000000000000000008152600401620008b49062001059565b60405180910390fd5b620008d16000838362000a4960201b60201c565b8060026000828254620008e59190620010aa565b92505081905550806000808473ffffffffffffffffffffffffffffffffffffffff1673ffffffffffffffffffffffffffffffffffffffff168152602001908152602001600020600082825401925050819055508173ffffffffffffffffffffffffffffffffffffffff16600073ffffffffffffffffffffffffffffffffffffffff167fddf252ad1be2c89b69c2b068fc378daa952ba7f163c4a11628f55a4df523b3ef83604051620009989190620010f6565b60405180910390a3620009b46000838362000a4e60201b60201c565b5050565b620009c8620004cd60201b60201c565b73ffffffffffffffffffffffffffffffffffffffff16620009ee620006d160201b60201c565b73ffffffffffffffffffffffffffffffffffffffff161462000a47576040517f08c379a000000000000000000000000000000000000000000000000000000000815260040162000a3e9062001163565b60405180910390fd5b565b505050565b505050565b600081519050919050565b7f4e487b7100000000000000000000000000000000000000000000000000000000600052604160045260246000fd5b7f4e487b7100000000000000000000000000000000000000000000000000000000600052602260045260246000fd5b6000600282049050600182168062000ad557607f821691505b60208210810362000aeb5762000aea62000a8d565b5b50919050565b60008190508160005260206000209050919050565b60006020601f8301049050919050565b600082821b905092915050565b60006008830262000b557fffffffffffffffffffffffffffffffffffffffffffffffffffffffffffffffff8262000b16565b62000b61868362000b16565b95508019841693508086168417925050509392505050565b6000819050919050565b6000819050919050565b600062000bae62000ba862000ba28462000b79565b62000b83565b62000b79565b9050919050565b6000819050919050565b62000bca8362000b8d565b62000be262000bd98262000bb5565b84845462000b23565b825550505050565b600090565b62000bf962000bea565b62000c0681848462000bbf565b505050565b5b8181101562000c2e5762000c2260008262000bef565b60018101905062000c0c565b5050565b601f82111562000c7d5762000c478162000af1565b62000c528462000b06565b8101602085101562000c62578190505b62000c7a62000c718562000b06565b83018262000c0b565b50505b505050565b600082821c905092915050565b600062000ca26000198460080262000c82565b1980831691505092915050565b600062000cbd838362000c8f565b9150826002028217905092915050565b62000cd88262000a53565b67ffffffffffffffff81111562000cf45762000cf362000a5e565b5b62000d00825462000abc565b62000d0d82828562000c32565b600060209050601f83116001811462000d45576000841562000d30578287015190505b62000d3c858262000caf565b86555062000dac565b601f19841662000d558662000af1565b60005b8281101562000d7f5784890151825560018201915060208501945060208101905062000d58565b8683101562000d9f578489015162000d9b601f89168262000c8f565b8355505b6001600288020188555050505b505050505050565b600080fd5b600073ffffffffffffffffffffffffffffffffffffffff82169050919050565b600062000de68262000db9565b9050919050565b62000df88162000dd9565b811462000e0457600080fd5b50565b60008151905062000e188162000ded565b92915050565b60006020828403121562000e375762000e3662000db4565b5b600062000e478482850162000e07565b91505092915050565b62000e5b8162000dd9565b82525050565b600060408201905062000e78600083018562000e50565b62000e87602083018462000e50565b9392505050565b600082825260208201905092915050565b7f486f73706f3a204175746f6d61746564206d61726b6574206d616b657220706160008201527f697220697320616c72656164792073657420746f20746861742076616c756500602082015250565b600062000efd603f8362000e8e565b915062000f0a8262000e9f565b604082019050919050565b6000602082019050818103600083015262000f308162000eee565b9050919050565b7f486f73706f3a204163636f756e7420697320616c7265616479206578636c756460008201527f6564000000000000000000000000000000000000000000000000000000000000602082015250565b600062000f9560228362000e8e565b915062000fa28262000f37565b604082019050919050565b6000602082019050818103600083015262000fc88162000f86565b9050919050565b60008115159050919050565b62000fe68162000fcf565b82525050565b600060208201905062001003600083018462000fdb565b92915050565b7f45524332303a206d696e7420746f20746865207a65726f206164647265737300600082015250565b600062001041601f8362000e8e565b91506200104e8262001009565b602082019050919050565b60006020820190508181036000830152620010748162001032565b9050919050565b7f4e487b7100000000000000000000000000000000000000000000000000000000600052601160045260246000fd5b6000620010b78262000b79565b9150620010c48362000b79565b9250828201905080821115620010df57620010de6200107b565b5b92915050565b620010f08162000b79565b82525050565b60006020820190506200110d6000830184620010e5565b92915050565b7f4f776e61626c653a2063616c6c6572206973206e6f7420746865206f776e6572600082015250565b60006200114b60208362000e8e565b9150620011588262001113565b602082019050919050565b600060208201905081810360008301526200117e816200113c565b9050919050565b61445380620011956000396000f3fe6080604052600436106102975760003560e01c8063715018a61161015a578063c492f046116100c1578063e2f456051161007a578063e2f4560514610a37578063e71804cd14610a62578063eb33939114610a8b578063eb935a5314610ab6578063f2fde38b14610af3578063f9d0831a14610b1c5761029e565b8063c492f04614610917578063c520ac2814610940578063c851cc3214610969578063d798cbd214610992578063dcd6a95d146109bd578063dd62ed3e146109fa5761029e565b8063a457c2d711610113578063a457c2d7146107e3578063a9059cbb14610820578063aa4bde281461085d578063b62496f514610888578063bc337182146108c5578063c0246668146108ee5761029e565b8063715018a6146106f95780638c0b5e22146107105780638da5cb5b1461073b57806395d89b41146107665780639a7a23d6146107915780639dc29fac146107ba5761029e565b8063313ce567116101fe5780635d0044ca116101b75780635d0044ca146105d957806361d371dd146106025780636402511e1461062d57806368092bd9146106565780636c9bb93b1461067f57806370a08231146106bc5761029e565b8063313ce567146104b257806339509351146104dd578063470624021461051a57806349bd5a5e146105465780634dce97f1146105715780634fbee1931461059c5761029e565b80631694505e116102505780631694505e146103b357806318160ddd146103de5780631f53ac021461040957806323b872dd14610432578063293230b81461046f5780632b14ca56146104865761029e565b8063064a59d0146102a357806306fdde03146102ce5780630840a44a146102f957806308b6bcbd14610322578063095ea7b31461034b57806311a63e17146103885761029e565b3661029e57005b600080fd5b3480156102af57600080fd5b506102b8610b45565b6040516102c59190612c34565b60405180910390f35b3480156102da57600080fd5b506102e3610b58565b6040516102f09190612cdf565b60405180910390f35b34801561030557600080fd5b50610320600480360381019061031b9190612d4b565b610bea565b005b34801561032e57600080fd5b5061034960048036038101906103449190612d78565b610c52565b005b34801561035757600080fd5b50610372600480360381019061036d9190612e16565b610c8c565b60405161037f9190612c34565b60405180910390f35b34801561039457600080fd5b5061039d610caf565b6040516103aa9190612e77565b60405180910390f35b3480156103bf57600080fd5b506103c8610cd5565b6040516103d59190612ef1565b60405180910390f35b3480156103ea57600080fd5b506103f3610cfb565b6040516104009190612f1b565b60405180910390f35b34801561041557600080fd5b50610430600480360381019061042b9190612f62565b610d05565b005b34801561043e57600080fd5b5061045960048036038101906104549190612f8f565b610dc0565b6040516104669190612c34565b60405180910390f35b34801561047b57600080fd5b50610484610def565b005b34801561049257600080fd5b5061049b610e9e565b6040516104a9929190612fff565b60405180910390f35b3480156104be57600080fd5b506104c7610ecc565b6040516104d49190613044565b60405180910390f35b3480156104e957600080fd5b5061050460048036038101906104ff9190612e16565b610ed5565b6040516105119190612c34565b60405180910390f35b34801561052657600080fd5b5061052f610f0c565b60405161053d929190612fff565b60405180910390f35b34801561055257600080fd5b5061055b610f3a565b604051610568919061306e565b60405180910390f35b34801561057d57600080fd5b50610586610f60565b6040516105939190613044565b60405180910390f35b3480156105a857600080fd5b506105c360048036038101906105be9190613089565b610f65565b6040516105d09190612c34565b60405180910390f35b3480156105e557600080fd5b5061060060048036038101906105fb9190612d4b565b610fbb565b005b34801561060e57600080fd5b50610617611026565b6040516106249190612c34565b60405180910390f35b34801561063957600080fd5b50610654600480360381019061064f9190612d4b565b611039565b005b34801561066257600080fd5b5061067d600480360381019061067891906130e2565b6110a3565b005b34801561068b57600080fd5b506106a660048036038101906106a19190613089565b611106565b6040516106b39190612c34565b60405180910390f35b3480156106c857600080fd5b506106e360048036038101906106de9190613089565b611126565b6040516106f09190612f1b565b60405180910390f35b34801561070557600080fd5b5061070e61116e565b005b34801561071c57600080fd5b50610725611182565b6040516107329190612f1b565b60405180910390f35b34801561074757600080fd5b50610750611188565b60405161075d919061306e565b60405180910390f35b34801561077257600080fd5b5061077b6111b2565b6040516107889190612cdf565b60405180910390f35b34801561079d57600080fd5b506107b860048036038101906107b391906130e2565b611244565b005b3480156107c657600080fd5b506107e160048036038101906107dc9190612e16565b6112ea565b005b3480156107ef57600080fd5b5061080a60048036038101906108059190612e16565b6112f8565b6040516108179190612c34565b60405180910390f35b34801561082c57600080fd5b5061084760048036038101906108429190612e16565b61136f565b6040516108549190612c34565b60405180910390f35b34801561086957600080fd5b50610872611392565b60405161087f9190612f1b565b60405180910390f35b34801561089457600080fd5b506108af60048036038101906108aa9190613089565b611398565b6040516108bc9190612c34565b60405180910390f35b3480156108d157600080fd5b506108ec60048036038101906108e79190612d4b565b6113b8565b005b3480156108fa57600080fd5b50610915600480360381019061091091906130e2565b611423565b005b34801561092357600080fd5b5061093e60048036038101906109399190613187565b611566565b005b34801561094c57600080fd5b5061096760048036038101906109629190613089565b61164e565b005b34801561097557600080fd5b50610990600480360381019061098b9190613089565b611735565b005b34801561099e57600080fd5b506109a7611c0b565b6040516109b49190612f1b565b60405180910390f35b3480156109c957600080fd5b506109e460048036038101906109df9190612d4b565b611c11565b6040516109f19190612f1b565b60405180910390f35b348015610a0657600080fd5b50610a216004803603810190610a1c91906131e7565b611e60565b604051610a2e9190612f1b565b60405180910390f35b348015610a4357600080fd5b50610a4c611ee7565b604051610a599190612f1b565b60405180910390f35b348015610a6e57600080fd5b50610a896004803603810190610a849190613227565b611eed565b005b348015610a9757600080fd5b50610aa0611f12565b604051610aad9190612f1b565b60405180910390f35b348015610ac257600080fd5b50610add6004803603810190610ad89190613089565b611f18565b604051610aea9190612f1b565b60405180910390f35b348015610aff57600080fd5b50610b1a6004803603810190610b159190613089565b611f30565b005b348015610b2857600080fd5b50610b436004803603810190610b3e9190613089565b611fb3565b005b600760159054906101000a900460ff1681565b606060038054610b6790613283565b80601f0160208091040260200160405190810160405280929190818152602001828054610b9390613283565b8015610be05780601f10610bb557610100808354040283529160200191610be0565b820191906000526020600020905b815481529060010190602001808311610bc357829003601f168201915b5050505050905090565b610bf2612151565b600a8111610c35576040517f08c379a0000000000000000000000000000000000000000000000000000000008152600401610c2c90613300565b60405180910390fd5b670de0b6b3a764000081610c49919061334f565b60108190555050565b610c5a612151565b610c7e6040518060600160405280603081526020016143ee603091393384846121cf565b610c888282612271565b5050565b600080610c97612351565b9050610ca4818585612359565b600191505092915050565b601360009054906101000a900473ffffffffffffffffffffffffffffffffffffffff1681565b600660009054906101000a900473ffffffffffffffffffffffffffffffffffffffff1681565b6000600254905090565b610d0d612151565b600073ffffffffffffffffffffffffffffffffffffffff168173ffffffffffffffffffffffffffffffffffffffff1603610d7c576040517f08c379a0000000000000000000000000000000000000000000000000000000008152600401610d73906133dd565b60405180910390fd5b80601360006101000a81548173ffffffffffffffffffffffffffffffffffffffff021916908373ffffffffffffffffffffffffffffffffffffffff16021790555050565b600080610dcb612351565b9050610dd8858285612522565b610de38585856125ae565b60019150509392505050565b610df7612151565b6023600a60000160006101000a81548161ffff021916908361ffff160217905550600a8060000160026101000a81548161ffff021916908361ffff1602179055506023600b60000160006101000a81548161ffff021916908361ffff160217905550600a600b60000160026101000a81548161ffff021916908361ffff1602179055506001600760156101000a81548160ff02191690831515021790555043600881905550565b600b8060000160009054906101000a900461ffff16908060000160029054906101000a900461ffff16905082565b60006012905090565b600080610ee0612351565b9050610f01818585610ef28589611e60565b610efc91906133fd565b612359565b600191505092915050565b600a8060000160009054906101000a900461ffff16908060000160029054906101000a900461ffff16905082565b600760009054906101000a900473ffffffffffffffffffffffffffffffffffffffff1681565b606481565b6000601560008373ffffffffffffffffffffffffffffffffffffffff1673ffffffffffffffffffffffffffffffffffffffff16815260200190815260200160002060009054906101000a900460ff169050919050565b610fc3612151565b63832156018111611009576040517f08c379a0000000000000000000000000000000000000000000000000000000008152600401611000906134a3565b60405180910390fd5b670de0b6b3a76400008161101d919061334f565b600f8190555050565b600760169054906101000a900460ff1681565b611041612151565b621e84808111611086576040517f08c379a000000000000000000000000000000000000000000000000000000000815260040161107d90613535565b60405180910390fd5b670de0b6b3a76400008161109a919061334f565b600d8190555050565b6110ab612151565b80601460008473ffffffffffffffffffffffffffffffffffffffff1673ffffffffffffffffffffffffffffffffffffffff16815260200190815260200160002060006101000a81548160ff0219169083151502179055505050565b60146020528060005260406000206000915054906101000a900460ff1681565b60008060008373ffffffffffffffffffffffffffffffffffffffff1673ffffffffffffffffffffffffffffffffffffffff168152602001908152602001600020549050919050565b611176612151565b6111806000612824565b565b600e5481565b6000600560009054906101000a900473ffffffffffffffffffffffffffffffffffffffff16905090565b6060600480546111c190613283565b80601f01602080910402602001604051908101604052809291908181526020018280546111ed90613283565b801561123a5780601f1061120f5761010080835404028352916020019161123a565b820191906000526020600020905b81548152906001019060200180831161121d57829003601f168201915b5050505050905090565b61124c612151565b600760009054906101000a900473ffffffffffffffffffffffffffffffffffffffff1673ffffffffffffffffffffffffffffffffffffffff168273ffffffffffffffffffffffffffffffffffffffff16036112dc576040517f08c379a00000000000000000000000000000000000000000000000000000000081526004016112d3906135ed565b60405180910390fd5b6112e682826128ea565b5050565b6112f48282612a1d565b5050565b600080611303612351565b905060006113118286611e60565b905083811015611356576040517f08c379a000000000000000000000000000000000000000000000000000000000815260040161134d9061367f565b60405180910390fd5b6113638286868403612359565b60019250505092915050565b60008061137a612351565b90506113878185856125ae565b600191505092915050565b600f5481565b60166020528060005260406000206000915054906101000a900460ff1681565b6113c0612151565b63832156018111611406576040517f08c379a00000000000000000000000000000000000000000000000000000000081526004016113fd906134a3565b60405180910390fd5b670de0b6b3a76400008161141a919061334f565b600e8190555050565b61142b612151565b801515601560008473ffffffffffffffffffffffffffffffffffffffff1673ffffffffffffffffffffffffffffffffffffffff16815260200190815260200160002060009054906101000a900460ff161515036114bd576040517f08c379a00000000000000000000000000000000000000000000000000000000081526004016114b490613711565b60405180910390fd5b80601560008473ffffffffffffffffffffffffffffffffffffffff1673ffffffffffffffffffffffffffffffffffffffff16815260200190815260200160002060006101000a81548160ff0219169083151502179055508173ffffffffffffffffffffffffffffffffffffffff167f9d8f7706ea1113d1a167b526eca956215946dd36cc7df39eb16180222d8b5df78260405161155a9190612c34565b60405180910390a25050565b61156e612151565b60005b8383905081101561160d57816015600086868581811061159457611593613731565b5b90506020020160208101906115a99190613089565b73ffffffffffffffffffffffffffffffffffffffff1673ffffffffffffffffffffffffffffffffffffffff16815260200190815260200160002060006101000a81548160ff021916908315150217905550808061160590613760565b915050611571565b507f7fdaf542373fa84f4ee8d662c642f44e4c2276a217d7d29e548b6eb29a233b358383836040516116419392919061386b565b60405180910390a1505050565b611656612151565b6000600a60000160006101000a81548161ffff021916908361ffff1602179055506000600a60000160026101000a81548161ffff021916908361ffff1602179055506000600b60000160006101000a81548161ffff021916908361ffff1602179055506000600b60000160026101000a81548161ffff021916908361ffff1602179055506001601560008373ffffffffffffffffffffffffffffffffffffffff1673ffffffffffffffffffffffffffffffffffffffff16815260200190815260200160002060006101000a81548160ff02191690831515021790555050565b61173d612151565b600660009054906101000a900473ffffffffffffffffffffffffffffffffffffffff1673ffffffffffffffffffffffffffffffffffffffff168173ffffffffffffffffffffffffffffffffffffffff16036117cd576040517f08c379a00000000000000000000000000000000000000000000000000000000081526004016117c49061390f565b60405180910390fd5b80600660006101000a81548173ffffffffffffffffffffffffffffffffffffffff021916908373ffffffffffffffffffffffffffffffffffffffff1602179055506000600660009054906101000a900473ffffffffffffffffffffffffffffffffffffffff1673ffffffffffffffffffffffffffffffffffffffff1663c45a01556040518163ffffffff1660e01b8152600401602060405180830381865afa15801561187d573d6000803e3d6000fd5b505050506040513d601f19601f820116820180604052508101906118a19190613944565b73ffffffffffffffffffffffffffffffffffffffff1663e6a4390530600660009054906101000a900473ffffffffffffffffffffffffffffffffffffffff1673ffffffffffffffffffffffffffffffffffffffff1663ad5c46486040518163ffffffff1660e01b8152600401602060405180830381865afa15801561192a573d6000803e3d6000fd5b505050506040513d601f19601f8201168201806040525081019061194e9190613944565b6040518363ffffffff1660e01b815260040161196b929190613971565b602060405180830381865afa158015611988573d6000803e3d6000fd5b505050506040513d601f19601f820116820180604052508101906119ac9190613944565b9050600073ffffffffffffffffffffffffffffffffffffffff168173ffffffffffffffffffffffffffffffffffffffff1603611bc557600660009054906101000a900473ffffffffffffffffffffffffffffffffffffffff1673ffffffffffffffffffffffffffffffffffffffff1663c45a01556040518163ffffffff1660e01b8152600401602060405180830381865afa158015611a4f573d6000803e3d6000fd5b505050506040513d601f19601f82011682018060405250810190611a739190613944565b73ffffffffffffffffffffffffffffffffffffffff1663c9c6539630600660009054906101000a900473ffffffffffffffffffffffffffffffffffffffff1673ffffffffffffffffffffffffffffffffffffffff1663ad5c46486040518163ffffffff1660e01b8152600401602060405180830381865afa158015611afc573d6000803e3d6000fd5b505050506040513d601f19601f82011682018060405250810190611b209190613944565b6040518363ffffffff1660e01b8152600401611b3d929190613971565b6020604051808303816000875af1158015611b5c573d6000803e3d6000fd5b505050506040513d601f19601f82011682018060405250810190611b809190613944565b600760006101000a81548173ffffffffffffffffffffffffffffffffffffffff021916908373ffffffffffffffffffffffffffffffffffffffff160217905550611c07565b80600760006101000a81548173ffffffffffffffffffffffffffffffffffffffff021916908373ffffffffffffffffffffffffffffffffffffffff1602179055505b5050565b60085481565b600080600267ffffffffffffffff811115611c2f57611c2e61399a565b5b604051908082528060200260200182016040528015611c5d5781602001602082028036833780820191505090505b5090503081600081518110611c7557611c74613731565b5b602002602001019073ffffffffffffffffffffffffffffffffffffffff16908173ffffffffffffffffffffffffffffffffffffffff1681525050600660009054906101000a900473ffffffffffffffffffffffffffffffffffffffff1673ffffffffffffffffffffffffffffffffffffffff1663ad5c46486040518163ffffffff1660e01b8152600401602060405180830381865afa158015611d1c573d6000803e3d6000fd5b505050506040513d601f19601f82011682018060405250810190611d409190613944565b81600181518110611d5457611d53613731565b5b602002602001019073ffffffffffffffffffffffffffffffffffffffff16908173ffffffffffffffffffffffffffffffffffffffff1681525050600660009054906101000a900473ffffffffffffffffffffffffffffffffffffffff1673ffffffffffffffffffffffffffffffffffffffff1663d06ca61f84836040518363ffffffff1660e01b8152600401611deb929190613a4f565b600060405180830381865afa158015611e08573d6000803e3d6000fd5b505050506040513d6000823e3d601f19601f82011682018060405250810190611e319190613ba3565b60018251611e3f9190613bec565b81518110611e5057611e4f613731565b5b6020026020010151915050919050565b6000600160008473ffffffffffffffffffffffffffffffffffffffff1673ffffffffffffffffffffffffffffffffffffffff16815260200190815260200160002060008373ffffffffffffffffffffffffffffffffffffffff1673ffffffffffffffffffffffffffffffffffffffff16815260200190815260200160002054905092915050565b600d5481565b611ef5612151565b80600760166101000a81548160ff02191690831515021790555050565b60105481565b60126020528060005260406000206000915090505481565b611f38612151565b600073ffffffffffffffffffffffffffffffffffffffff168173ffffffffffffffffffffffffffffffffffffffff1603611fa7576040517f08c379a0000000000000000000000000000000000000000000000000000000008152600401611f9e90613c92565b60405180910390fd5b611fb081612824565b50565b611fbb612151565b600073ffffffffffffffffffffffffffffffffffffffff168173ffffffffffffffffffffffffffffffffffffffff160361204257611ff7611188565b73ffffffffffffffffffffffffffffffffffffffff166108fc479081150290604051600060405180830381858888f1935050505015801561203c573d6000803e3d6000fd5b5061214e565b600081905060008173ffffffffffffffffffffffffffffffffffffffff166370a08231306040518263ffffffff1660e01b8152600401612082919061306e565b602060405180830381865afa15801561209f573d6000803e3d6000fd5b505050506040513d601f19601f820116820180604052508101906120c39190613cb2565b90508173ffffffffffffffffffffffffffffffffffffffff1663a9059cbb6120e9611188565b836040518363ffffffff1660e01b8152600401612107929190613cdf565b6020604051808303816000875af1158015612126573d6000803e3d6000fd5b505050506040513d601f19601f8201168201806040525081019061214a9190613d1d565b5050505b50565b612159612351565b73ffffffffffffffffffffffffffffffffffffffff16612177611188565b73ffffffffffffffffffffffffffffffffffffffff16146121cd576040517f08c379a00000000000000000000000000000000000000000000000000000000081526004016121c490613d96565b60405180910390fd5b565b61226b848484846040516024016121e99493929190613db6565b6040516020818303038152906040527ff8f51b1e000000000000000000000000000000000000000000000000000000007bffffffffffffffffffffffffffffffffffffffffffffffffffffffff19166020820180517bffffffffffffffffffffffffffffffffffffffffffffffffffffffff8381831617835250505050612bea565b50505050565b61229e30600660009054906101000a900473ffffffffffffffffffffffffffffffffffffffff1684612359565b600660009054906101000a900473ffffffffffffffffffffffffffffffffffffffff1673ffffffffffffffffffffffffffffffffffffffff1663f305d71982308560008061dead426040518863ffffffff1660e01b815260040161230796959493929190613e3d565b60606040518083038185885af1158015612325573d6000803e3d6000fd5b50505050506040513d601f19601f8201168201806040525081019061234a9190613e9e565b5050505050565b600033905090565b600073ffffffffffffffffffffffffffffffffffffffff168373ffffffffffffffffffffffffffffffffffffffff16036123c8576040517f08c379a00000000000000000000000000000000000000000000000000000000081526004016123bf90613f63565b60405180910390fd5b600073ffffffffffffffffffffffffffffffffffffffff168273ffffffffffffffffffffffffffffffffffffffff1603612437576040517f08c379a000000000000000000000000000000000000000000000000000000000815260040161242e90613ff5565b60405180910390fd5b80600160008573ffffffffffffffffffffffffffffffffffffffff1673ffffffffffffffffffffffffffffffffffffffff16815260200190815260200160002060008473ffffffffffffffffffffffffffffffffffffffff1673ffffffffffffffffffffffffffffffffffffffff168152602001908152602001600020819055508173ffffffffffffffffffffffffffffffffffffffff168373ffffffffffffffffffffffffffffffffffffffff167f8c5be1e5ebec7d5bd14f71427d1e84f3dd0314c0f7b2291e5b200ac8c7c3b925836040516125159190612f1b565b60405180910390a3505050565b600061252e8484611e60565b90507fffffffffffffffffffffffffffffffffffffffffffffffffffffffffffffffff81146125a8578181101561259a576040517f08c379a000000000000000000000000000000000000000000000000000000000815260040161259190614061565b60405180910390fd5b6125a78484848403612359565b5b50505050565b600073ffffffffffffffffffffffffffffffffffffffff168373ffffffffffffffffffffffffffffffffffffffff160361261d576040517f08c379a0000000000000000000000000000000000000000000000000000000008152600401612614906140f3565b60405180910390fd5b600073ffffffffffffffffffffffffffffffffffffffff168273ffffffffffffffffffffffffffffffffffffffff160361268c576040517f08c379a000000000000000000000000000000000000000000000000000000000815260040161268390614185565b60405180910390fd5b612697838383612c0f565b60008060008573ffffffffffffffffffffffffffffffffffffffff1673ffffffffffffffffffffffffffffffffffffffff1681526020019081526020016000205490508181101561271d576040517f08c379a000000000000000000000000000000000000000000000000000000000815260040161271490614217565b60405180910390fd5b8181036000808673ffffffffffffffffffffffffffffffffffffffff1673ffffffffffffffffffffffffffffffffffffffff16815260200190815260200160002081905550816000808573ffffffffffffffffffffffffffffffffffffffff1673ffffffffffffffffffffffffffffffffffffffff168152602001908152602001600020600082825401925050819055508273ffffffffffffffffffffffffffffffffffffffff168473ffffffffffffffffffffffffffffffffffffffff167fddf252ad1be2c89b69c2b068fc378daa952ba7f163c4a11628f55a4df523b3ef8460405161280b9190612f1b565b60405180910390a361281e848484612c14565b50505050565b6000600560009054906101000a900473ffffffffffffffffffffffffffffffffffffffff16905081600560006101000a81548173ffffffffffffffffffffffffffffffffffffffff021916908373ffffffffffffffffffffffffffffffffffffffff1602179055508173ffffffffffffffffffffffffffffffffffffffff168173ffffffffffffffffffffffffffffffffffffffff167f8be0079c531659141344cd1fd0a4f28419497f9722a3daafe3b4186f6b6457e060405160405180910390a35050565b801515601660008473ffffffffffffffffffffffffffffffffffffffff1673ffffffffffffffffffffffffffffffffffffffff16815260200190815260200160002060009054906101000a900460ff1615150361297c576040517f08c379a0000000000000000000000000000000000000000000000000000000008152600401612973906142a9565b60405180910390fd5b80601660008473ffffffffffffffffffffffffffffffffffffffff1673ffffffffffffffffffffffffffffffffffffffff16815260200190815260200160002060006101000a81548160ff0219169083151502179055508015158273ffffffffffffffffffffffffffffffffffffffff167fffa9187bf1f18bf477bd0ea1bcbb64e93b6a98132473929edfce215cd9b16fab60405160405180910390a35050565b600073ffffffffffffffffffffffffffffffffffffffff168273ffffffffffffffffffffffffffffffffffffffff1603612a8c576040517f08c379a0000000000000000000000000000000000000000000000000000000008152600401612a839061433b565b60405180910390fd5b612a9882600083612c0f565b60008060008473ffffffffffffffffffffffffffffffffffffffff1673ffffffffffffffffffffffffffffffffffffffff16815260200190815260200160002054905081811015612b1e576040517f08c379a0000000000000000000000000000000000000000000000000000000008152600401612b15906143cd565b60405180910390fd5b8181036000808573ffffffffffffffffffffffffffffffffffffffff1673ffffffffffffffffffffffffffffffffffffffff1681526020019081526020016000208190555081600260008282540392505081905550600073ffffffffffffffffffffffffffffffffffffffff168373ffffffffffffffffffffffffffffffffffffffff167fddf252ad1be2c89b69c2b068fc378daa952ba7f163c4a11628f55a4df523b3ef84604051612bd19190612f1b565b60405180910390a3612be583600084612c14565b505050565b60006a636f6e736f6c652e6c6f6790508151602083016000808383865afa5050505050565b505050565b505050565b60008115159050919050565b612c2e81612c19565b82525050565b6000602082019050612c496000830184612c25565b92915050565b600081519050919050565b600082825260208201905092915050565b60005b83811015612c89578082015181840152602081019050612c6e565b60008484015250505050565b6000601f19601f8301169050919050565b6000612cb182612c4f565b612cbb8185612c5a565b9350612ccb818560208601612c6b565b612cd481612c95565b840191505092915050565b60006020820190508181036000830152612cf98184612ca6565b905092915050565b6000604051905090565b600080fd5b600080fd5b6000819050919050565b612d2881612d15565b8114612d3357600080fd5b50565b600081359050612d4581612d1f565b92915050565b600060208284031215612d6157612d60612d0b565b5b6000612d6f84828501612d36565b91505092915050565b60008060408385031215612d8f57612d8e612d0b565b5b6000612d9d85828601612d36565b9250506020612dae85828601612d36565b9150509250929050565b600073ffffffffffffffffffffffffffffffffffffffff82169050919050565b6000612de382612db8565b9050919050565b612df381612dd8565b8114612dfe57600080fd5b50565b600081359050612e1081612dea565b92915050565b60008060408385031215612e2d57612e2c612d0b565b5b6000612e3b85828601612e01565b9250506020612e4c85828601612d36565b9150509250929050565b6000612e6182612db8565b9050919050565b612e7181612e56565b82525050565b6000602082019050612e8c6000830184612e68565b92915050565b6000819050919050565b6000612eb7612eb2612ead84612db8565b612e92565b612db8565b9050919050565b6000612ec982612e9c565b9050919050565b6000612edb82612ebe565b9050919050565b612eeb81612ed0565b82525050565b6000602082019050612f066000830184612ee2565b92915050565b612f1581612d15565b82525050565b6000602082019050612f306000830184612f0c565b92915050565b612f3f81612e56565b8114612f4a57600080fd5b50565b600081359050612f5c81612f36565b92915050565b600060208284031215612f7857612f77612d0b565b5b6000612f8684828501612f4d565b91505092915050565b600080600060608486031215612fa857612fa7612d0b565b5b6000612fb686828701612e01565b9350506020612fc786828701612e01565b9250506040612fd886828701612d36565b9150509250925092565b600061ffff82169050919050565b612ff981612fe2565b82525050565b60006040820190506130146000830185612ff0565b6130216020830184612ff0565b9392505050565b600060ff82169050919050565b61303e81613028565b82525050565b60006020820190506130596000830184613035565b92915050565b61306881612dd8565b82525050565b6000602082019050613083600083018461305f565b92915050565b60006020828403121561309f5761309e612d0b565b5b60006130ad84828501612e01565b91505092915050565b6130bf81612c19565b81146130ca57600080fd5b50565b6000813590506130dc816130b6565b92915050565b600080604083850312156130f9576130f8612d0b565b5b600061310785828601612e01565b9250506020613118858286016130cd565b9150509250929050565b600080fd5b600080fd5b600080fd5b60008083601f84011261314757613146613122565b5b8235905067ffffffffffffffff81111561316457613163613127565b5b6020830191508360208202830111156131805761317f61312c565b5b9250929050565b6000806000604084860312156131a05761319f612d0b565b5b600084013567ffffffffffffffff8111156131be576131bd612d10565b5b6131ca86828701613131565b935093505060206131dd868287016130cd565b9150509250925092565b600080604083850312156131fe576131fd612d0b565b5b600061320c85828601612e01565b925050602061321d85828601612e01565b9150509250929050565b60006020828403121561323d5761323c612d0b565b5b600061324b848285016130cd565b91505092915050565b7f4e487b7100000000000000000000000000000000000000000000000000000000600052602260045260246000fd5b6000600282049050600182168061329b57607f821691505b6020821081036132ae576132ad613254565b5b50919050565b7f6361702073686f756c64206d6f7265207468616e203130206574686572000000600082015250565b60006132ea601d83612c5a565b91506132f5826132b4565b602082019050919050565b60006020820190508181036000830152613319816132dd565b9050919050565b7f4e487b7100000000000000000000000000000000000000000000000000000000600052601160045260246000fd5b600061335a82612d15565b915061336583612d15565b925082820261337381612d15565b9150828204841483151761338a57613389613320565b5b5092915050565b7f6465762077616c6c657420616464726573732063616e2774206265207a65726f600082015250565b60006133c7602083612c5a565b91506133d282613391565b602082019050919050565b600060208201905081810360008301526133f6816133ba565b9050919050565b600061340882612d15565b915061341383612d15565b925082820190508082111561342b5761342a613320565b5b92915050565b7f20616d6f756e742073686f756c642062652067726561746f72207468616e203060008201527f2e303125206f662074686520737570706c790000000000000000000000000000602082015250565b600061348d603283612c5a565b915061349882613431565b604082019050919050565b600060208201905081810360008301526134bc81613480565b9050919050565b7f73686f756c642062652067726561746f72207468616e2032206d696c6c696f6e60008201527f20746f6b656e7300000000000000000000000000000000000000000000000000602082015250565b600061351f602783612c5a565b915061352a826134c3565b604082019050919050565b6000602082019050818103600083015261354e81613512565b9050919050565b7f486f73706f3a205468652050616e63616b655377617020706169722063616e6e60008201527f6f742062652072656d6f7665642066726f6d206175746f6d617465644d61726b60208201527f65744d616b657250616972730000000000000000000000000000000000000000604082015250565b60006135d7604c83612c5a565b91506135e282613555565b606082019050919050565b60006020820190508181036000830152613606816135ca565b9050919050565b7f45524332303a2064656372656173656420616c6c6f77616e63652062656c6f7760008201527f207a65726f000000000000000000000000000000000000000000000000000000602082015250565b6000613669602583612c5a565b91506136748261360d565b604082019050919050565b600060208201905081810360008301526136988161365c565b9050919050565b7f486f73706f3a204163636f756e7420697320616c7265616479206578636c756460008201527f6564000000000000000000000000000000000000000000000000000000000000602082015250565b60006136fb602283612c5a565b91506137068261369f565b604082019050919050565b6000602082019050818103600083015261372a816136ee565b9050919050565b7f4e487b7100000000000000000000000000000000000000000000000000000000600052603260045260246000fd5b600061376b82612d15565b91507fffffffffffffffffffffffffffffffffffffffffffffffffffffffffffffffff820361379d5761379c613320565b5b600182019050919050565b600082825260208201905092915050565b6000819050919050565b6137cc81612dd8565b82525050565b60006137de83836137c3565b60208301905092915050565b60006137f96020840184612e01565b905092915050565b6000602082019050919050565b600061381a83856137a8565b9350613825826137b9565b8060005b8581101561385e5761383b82846137ea565b61384588826137d2565b975061385083613801565b925050600181019050613829565b5085925050509392505050565b6000604082019050818103600083015261388681858761380e565b90506138956020830184612c25565b949350505050565b7f486f73706f3a2054686520726f7574657220616c72656164792068617320746860008201527f6174206164647265737300000000000000000000000000000000000000000000602082015250565b60006138f9602a83612c5a565b91506139048261389d565b604082019050919050565b60006020820190508181036000830152613928816138ec565b9050919050565b60008151905061393e81612dea565b92915050565b60006020828403121561395a57613959612d0b565b5b60006139688482850161392f565b91505092915050565b6000604082019050613986600083018561305f565b613993602083018461305f565b9392505050565b7f4e487b7100000000000000000000000000000000000000000000000000000000600052604160045260246000fd5b600081519050919050565b6000819050602082019050919050565b6000602082019050919050565b60006139fc826139c9565b613a0681856137a8565b9350613a11836139d4565b8060005b83811015613a42578151613a2988826137d2565b9750613a34836139e4565b925050600181019050613a15565b5085935050505092915050565b6000604082019050613a646000830185612f0c565b8181036020830152613a7681846139f1565b90509392505050565b613a8882612c95565b810181811067ffffffffffffffff82111715613aa757613aa661399a565b5b80604052505050565b6000613aba612d01565b9050613ac68282613a7f565b919050565b600067ffffffffffffffff821115613ae657613ae561399a565b5b602082029050602081019050919050565b600081519050613b0681612d1f565b92915050565b6000613b1f613b1a84613acb565b613ab0565b90508083825260208201905060208402830185811115613b4257613b4161312c565b5b835b81811015613b6b5780613b578882613af7565b845260208401935050602081019050613b44565b5050509392505050565b600082601f830112613b8a57613b89613122565b5b8151613b9a848260208601613b0c565b91505092915050565b600060208284031215613bb957613bb8612d0b565b5b600082015167ffffffffffffffff811115613bd757613bd6612d10565b5b613be384828501613b75565b91505092915050565b6000613bf782612d15565b9150613c0283612d15565b9250828203905081811115613c1a57613c19613320565b5b92915050565b7f4f776e61626c653a206e6577206f776e657220697320746865207a65726f206160008201527f6464726573730000000000000000000000000000000000000000000000000000602082015250565b6000613c7c602683612c5a565b9150613c8782613c20565b604082019050919050565b60006020820190508181036000830152613cab81613c6f565b9050919050565b600060208284031215613cc857613cc7612d0b565b5b6000613cd684828501613af7565b91505092915050565b6000604082019050613cf4600083018561305f565b613d016020830184612f0c565b9392505050565b600081519050613d17816130b6565b92915050565b600060208284031215613d3357613d32612d0b565b5b6000613d4184828501613d08565b91505092915050565b7f4f776e61626c653a2063616c6c6572206973206e6f7420746865206f776e6572600082015250565b6000613d80602083612c5a565b9150613d8b82613d4a565b602082019050919050565b60006020820190508181036000830152613daf81613d73565b9050919050565b60006080820190508181036000830152613dd08187612ca6565b9050613ddf602083018661305f565b613dec6040830185612f0c565b613df96060830184612f0c565b95945050505050565b6000819050919050565b6000613e27613e22613e1d84613e02565b612e92565b612d15565b9050919050565b613e3781613e0c565b82525050565b600060c082019050613e52600083018961305f565b613e5f6020830188612f0c565b613e6c6040830187613e2e565b613e796060830186613e2e565b613e86608083018561305f565b613e9360a0830184612f0c565b979650505050505050565b600080600060608486031215613eb757613eb6612d0b565b5b6000613ec586828701613af7565b9350506020613ed686828701613af7565b9250506040613ee786828701613af7565b9150509250925092565b7f45524332303a20617070726f76652066726f6d20746865207a65726f2061646460008201527f7265737300000000000000000000000000000000000000000000000000000000602082015250565b6000613f4d602483612c5a565b9150613f5882613ef1565b604082019050919050565b60006020820190508181036000830152613f7c81613f40565b9050919050565b7f45524332303a20617070726f766520746f20746865207a65726f20616464726560008201527f7373000000000000000000000000000000000000000000000000000000000000602082015250565b6000613fdf602283612c5a565b9150613fea82613f83565b604082019050919050565b6000602082019050818103600083015261400e81613fd2565b9050919050565b7f45524332303a20696e73756666696369656e7420616c6c6f77616e6365000000600082015250565b600061404b601d83612c5a565b915061405682614015565b602082019050919050565b6000602082019050818103600083015261407a8161403e565b9050919050565b7f45524332303a207472616e736665722066726f6d20746865207a65726f20616460008201527f6472657373000000000000000000000000000000000000000000000000000000602082015250565b60006140dd602583612c5a565b91506140e882614081565b604082019050919050565b6000602082019050818103600083015261410c816140d0565b9050919050565b7f45524332303a207472616e7366657220746f20746865207a65726f206164647260008201527f6573730000000000000000000000000000000000000000000000000000000000602082015250565b600061416f602383612c5a565b915061417a82614113565b604082019050919050565b6000602082019050818103600083015261419e81614162565b9050919050565b7f45524332303a207472616e7366657220616d6f756e742065786365656473206260008201527f616c616e63650000000000000000000000000000000000000000000000000000602082015250565b6000614201602683612c5a565b915061420c826141a5565b604082019050919050565b60006020820190508181036000830152614230816141f4565b9050919050565b7f486f73706f3a204175746f6d61746564206d61726b6574206d616b657220706160008201527f697220697320616c72656164792073657420746f20746861742076616c756500602082015250565b6000614293603f83612c5a565b915061429e82614237565b604082019050919050565b600060208201905081810360008301526142c281614286565b9050919050565b7f45524332303a206275726e2066726f6d20746865207a65726f2061646472657360008201527f7300000000000000000000000000000000000000000000000000000000000000602082015250565b6000614325602183612c5a565b9150614330826142c9565b604082019050919050565b6000602082019050818103600083015261435481614318565b9050919050565b7f45524332303a206275726e20616d6f756e7420657863656564732062616c616e60008201527f6365000000000000000000000000000000000000000000000000000000000000602082015250565b60006143b7602283612c5a565b91506143c28261435b565b604082019050919050565b600060208201905081810360008301526143e6816143aa565b905091905056fe6372656174696e672074657374506f6f6c2073656e646572202d20256f20746f6b656e733a202564206574683a202564a2646970667358221220ca1c491a7e96a3199e4cc81ebee16ce3fb0b6fc1043125c95c03648b455475f264736f6c63430008110033",
  "immutableReferences": {},
  "source": "pragma solidity ^0.8.12;\n\n\nimport \"@openzeppelin/contracts/token/ERC20/ERC20.sol\";\nimport \"@openzeppelin/contracts/access/Ownable.sol\";\nimport \"@openzeppelin/contracts/utils/math/SafeMath.sol\";\nimport \"@uniswap/v2-periphery/contracts/interfaces/IUniswapV2Router02.sol\";\nimport \"@uniswap/v2-core/contracts/interfaces/IUniswapV2Factory.sol\";\n\nimport \"truffle/console.sol\";\n\ncontract Hospo is ERC20, Ownable {\n    using SafeMath for uint256;\n\n    IUniswapV2Router02 public uniswapV2Router;\n    address public uniswapV2Pair;\n\n    bool private swapping;\n\n    bool public isTradingEnabled;\n    bool public isAntiBotEnabled;\n    uint256 public tradingStartBlock;\n\n    uint256 private lastBlock;\n    uint8 public constant BLOCKCOUNT = 100;\n\n    struct BuyFee {\n        uint16 devFee;\n        uint16 liquidityFee;\n    }\n\n    struct SellFee {\n        uint16 devFee;\n        uint16 liquidityFee;\n    }\n\n    BuyFee public buyFee;\n    SellFee public sellFee;\n    uint16 private totalBuyFee;\n    uint16 private totalSellFee;\n\n    address private constant deadWallet = address(0xdead);\n\n    uint256 public swapTokensAtAmount = 2 * 10**8 * (10**18);\n    uint256 public maxTxAmount = 22 * 10**9 * 10**18;\n    uint256 public maxWalletAmount = 22 * 10**10 * 10**18;\n\n    uint256 public dailyCap = 20 ether;\n    mapping(address => uint256) private lastSoldTime;\n    mapping(address => uint256) public soldTokenin24Hrs;\n\n    address payable public _devWallet = payable(address(0xb4eCfD43b81d13F9E511Ee0FfD2D8a6BDFe76EEf));\n\n    mapping(address => bool) public _isBlackListed;\n    // exlcude from fees and max transaction amount\n    mapping(address => bool) private _isExcludedFromFees;\n\n    // store addresses that a automatic market maker pairs. Any transfer *to* these addresses\n    // could be subject to a maximum transfer amount\n    mapping(address => bool) public automatedMarketMakerPairs;\n\n    event UpdateDividendTracker(\n        address indexed newAddress,\n        address indexed oldAddress\n    );\n\n    event UpdateUniswapV2Router(\n        address indexed newAddress,\n        address indexed oldAddress\n    );\n\n    event ExcludeFromFees(address indexed account, bool isExcluded);\n    event ExcludeMultipleAccountsFromFees(address[] accounts, bool isExcluded);\n\n    event SetAutomatedMarketMakerPair(address indexed pair, bool indexed value);\n\n    event SwapAndLiquify(\n        uint256 tokensSwapped,\n        uint256 ethReceived,\n        uint256 tokensIntoLiqudity\n    );\n\n    constructor() ERC20(\"HospoWise\", \"HOSPO\") {\n        sellFee.devFee = 35;\n        sellFee.liquidityFee = 10;\n        totalSellFee = 45;\n\n        buyFee.devFee = 35;\n        buyFee.liquidityFee = 10;\n        totalBuyFee = 45;\n\n        IUniswapV2Router02 _uniswapV2Router = IUniswapV2Router02(\n            0x7a250d5630B4cF539739dF2C5dAcb4c659F2488D\n        );\n        // Create a uniswap pair for this new token\n        address _uniswapV2Pair = IUniswapV2Factory(_uniswapV2Router.factory())\n        .createPair(address(this), _uniswapV2Router.WETH());\n\n        uniswapV2Router = _uniswapV2Router;\n        uniswapV2Pair = _uniswapV2Pair;\n\n        _setAutomatedMarketMakerPair(_uniswapV2Pair, true);\n\n        // exclude from paying fees or having max transaction amount\n        excludeFromFees(owner(), true);\n        excludeFromFees(_devWallet, true);\n        excludeFromFees(address(this), true);\n\n        /*\n            _mint is an internal function in ERC20.sol that is only called here,\n            and CANNOT be called ever again\n        */\n        _mint(owner(), 22_000_000_000_001 * (10**18)); //22,000,000,000,001 tokens\n    }\n\n    receive() external payable {}\n\n    function decimals() public view virtual override returns (uint8) {\n        return 18;\n    }\n\n    function setAntibot(bool value) external onlyOwner {\n        isAntiBotEnabled = value;\n    }\n\n    function burn(address account, uint256 amount) public {\n        _burn(account, amount);\n    }\n\n    function updateRouter(address newAddress) external onlyOwner {\n        require(\n            newAddress != address(uniswapV2Router),\n            \"Hospo: The router already has that address\"\n        );\n        uniswapV2Router = IUniswapV2Router02(newAddress);\n        address get_pair = IUniswapV2Factory(uniswapV2Router.factory()).getPair(\n            address(this),\n            uniswapV2Router.WETH()\n        );\n        if (get_pair == address(0)) {\n            uniswapV2Pair = IUniswapV2Factory(uniswapV2Router.factory())\n            .createPair(address(this), uniswapV2Router.WETH());\n        } else {\n            uniswapV2Pair = get_pair;\n        }\n    }\n\n    function claimStuckTokens(address _token) external onlyOwner {\n        if (_token == address(0x0)) {\n            payable(owner()).transfer(address(this).balance);\n            return;\n        }\n        IERC20 erc20token = IERC20(_token);\n        uint256 balance = erc20token.balanceOf(address(this));\n        erc20token.transfer(owner(), balance);\n    }\n\n    function excludeFromFees(address account, bool excluded) public onlyOwner {\n        require(\n            _isExcludedFromFees[account] != excluded,\n            \"Hospo: Account is already excluded\"\n        );\n        _isExcludedFromFees[account] = excluded;\n\n        emit ExcludeFromFees(account, excluded);\n    }\n\n    function excludeMultipleAccountsFromFees(\n        address[] calldata accounts,\n        bool excluded\n    ) public onlyOwner {\n        for (uint256 i = 0; i < accounts.length; i++) {\n            _isExcludedFromFees[accounts[i]] = excluded;\n        }\n\n        emit ExcludeMultipleAccountsFromFees(accounts, excluded);\n    }\n\n    function setDevWallet(address payable wallet) external onlyOwner {\n        require(wallet != address(0), \"dev wallet address can't be zero\");\n        _devWallet = wallet;\n    }\n\n    function setSwapAtAmount(uint256 value) external onlyOwner {\n        require(value > 2000000, \"should be greator than 2 million tokens\");\n        swapTokensAtAmount = value * 10**18;\n    }\n\n    function setMaxWallet(uint256 value) external onlyOwner {\n        require(\n            value > 2200000001,\n            \" amount should be greator than 0.01% of the supply\"\n        );\n        maxWalletAmount = value * 10**18;\n    }\n\n    function setMaxTx(uint256 value) external onlyOwner {\n        require(\n            value > 2200000001,\n            \" amount should be greator than 0.01% of the supply\"\n        );\n        maxTxAmount = value * 10**18;\n    }\n\n\n    function setBlackList(address addr, bool value) external onlyOwner {\n        _isBlackListed[addr] = value;\n    }\n\n    function setDailyCap(uint256 value) external onlyOwner {\n        require (value > 10, \"cap should more than 10 ether\");\n        dailyCap = value * 10**18;\n    }\n\n    function setAutomatedMarketMakerPair(address pair, bool value)\n    public\n    onlyOwner\n    {\n        require(\n            pair != uniswapV2Pair,\n            \"Hospo: The PancakeSwap pair cannot be removed from automatedMarketMakerPairs\"\n        );\n\n        _setAutomatedMarketMakerPair(pair, value);\n    }\n\n    function _setAutomatedMarketMakerPair(address pair, bool value) private {\n        require(\n            automatedMarketMakerPairs[pair] != value,\n            \"Hospo: Automated market maker pair is already set to that value\"\n        );\n        automatedMarketMakerPairs[pair] = value;\n\n        emit SetAutomatedMarketMakerPair(pair, value);\n    }\n\n    //   call this function before starting presale\n    function prepareForPresale(address presaleAddress) external onlyOwner {\n        buyFee.devFee = 0;\n        buyFee.liquidityFee = 0;\n        sellFee.devFee = 0;\n        sellFee.liquidityFee = 0;\n        _isExcludedFromFees[presaleAddress] = true;\n    }\n\n    // call this function once liquiidity is added\n    function startTrading() external onlyOwner {\n        buyFee.devFee = 35;\n        buyFee.liquidityFee = 10;\n        sellFee.devFee = 35;\n        sellFee.liquidityFee = 10;\n        isTradingEnabled = true;\n        tradingStartBlock = block.number;\n    }\n\n    function isExcludedFromFees(address account) public view returns (bool) {\n        return _isExcludedFromFees[account];\n    }\n\n\n    // @dev REMOVED AS ITS TOO COMPLEX TO GET WORKING SETTING UP ALL THE FLAGS.\n    function _transferIGNORE(\n        address from,\n        address to,\n        uint256 amount\n    ) internal {\n        require(from != address(0), \"ERC20: transfer from the zero address\");\n\n        require(\n            !_isBlackListed[from] && !_isBlackListed[to],\n            \"Account is blacklisted\"\n        );\n\n        if (amount == 0) {\n            super._transfer(from, to, 0);\n            return;\n        }\n\n        uint256 contractTokenBalance = balanceOf(address(this));\n\n        bool canSwap = contractTokenBalance >= swapTokensAtAmount;\n\n        if (\n            canSwap &&\n            !swapping &&\n            !automatedMarketMakerPairs[from] &&\n            from != owner() &&\n            to != owner()\n        ) {\n            swapping = true;\n\n            contractTokenBalance = swapTokensAtAmount;\n\n            uint256 swapTokens = contractTokenBalance\n            .mul(sellFee.liquidityFee)\n            .div(totalBuyFee + totalSellFee);\n            if (swapTokens > 0) {\n                swapAndLiquify(swapTokens);\n            }\n\n            uint256 feeTokens = contractTokenBalance - swapTokens;\n            if (feeTokens > 0) {\n                super._transfer(address(this), _devWallet, feeTokens);\n            }\n\n            swapping = false;\n        }\n\n        bool takeFee = !swapping;\n\n        // if any account belongs to _isExcludedFromFee account then remove the fee\n        if (_isExcludedFromFees[from] || _isExcludedFromFees[to]) {\n            takeFee = false;\n        }\n\n        if (takeFee) {\n            require(amount <= maxTxAmount, \"Amount exceeds limit\");\n            if (isAntiBotEnabled) {\n                require(block.number > lastBlock, \"One transfer per block\");\n\n                lastBlock = block.number;\n            }\n\n            if (!automatedMarketMakerPairs[to]) {\n                require(\n                    balanceOf(to) + amount <= maxWalletAmount,\n                    \"Balance exceeds limit\"\n                );\n            }\n\n            uint256 fees;\n\n            if (automatedMarketMakerPairs[to]) {\n                require(isTradingEnabled, \"Trading not enabled yet\");\n                fees = totalSellFee;\n\n                if (block.timestamp - lastSoldTime[from] > 1 days) {\n                    lastSoldTime[from] = block.timestamp;\n                    soldTokenin24Hrs[from] = 0;\n                }\n                uint256 ethAmount = getPriceOfToken(amount);\n                require(\n                    soldTokenin24Hrs[from] + ethAmount < dailyCap,\n                    \"Token amount exceeds daily sell limit\"\n                );\n\n                soldTokenin24Hrs[from] = soldTokenin24Hrs[from].add(ethAmount);\n\n            } else if (automatedMarketMakerPairs[from]) {\n                if (block.number < tradingStartBlock + BLOCKCOUNT) {\n                    _isBlackListed[to] = true;\n                }\n                fees = totalBuyFee;\n            }\n            uint256 feeAmount = amount.mul(fees).div(1000);\n\n            amount = amount.sub(feeAmount);\n\n            super._transfer(from, address(this), feeAmount);\n        }\n\n        super._transfer(from, to, amount);\n    }\n\n    function addLiquidity(uint256 tokenAmount, uint256 ethAmount) private {\n        // approve token transfer to cover all possible scenarios\n        _approve(address(this), address(uniswapV2Router), tokenAmount);\n\n        // add the liquidity\n        uniswapV2Router.addLiquidityETH{value: ethAmount}(\n            address(this),\n            tokenAmount,\n            0, // slippage is unavoidable\n            0, // slippage is unavoidable\n            address(0xdead),\n            block.timestamp\n        );\n    }\n\n    /**\n     * @dev TEST METHOD TO HELP US ADD LIQUIDITY EASY\n     */\n    function testSetup(uint256 tokenAmount, uint256 ethAmount) public onlyOwner {\n        console.log(\"creating testPool sender - %o tokens: %d eth: %d\", msg.sender, tokenAmount, ethAmount);\n        addLiquidity(tokenAmount, ethAmount);\n    }\n\n    function swapAndLiquify(uint256 tokens) private {\n        // split the contract balance into halves\n        uint256 half = tokens.div(2);\n        uint256 otherHalf = tokens.sub(half);\n\n        uint256 initialBalance = address(this).balance;\n\n        // swap tokens for ETH\n        swapTokensForETH(half); // <- this breaks the ETH -> HATE swap when swap+liquify is triggered\n\n        // how much ETH did we just swap into?\n        uint256 newBalance = address(this).balance.sub(initialBalance);\n        // add liquidity to uniswap\n        addLiquidity(otherHalf, newBalance);\n\n        emit SwapAndLiquify(half, newBalance, otherHalf);\n    }\n\n    function swapTokensForETH(uint256 tokenAmount) private {\n        // generate the uniswap pair path of token -> weth\n        address[] memory path = new address[](2);\n        path[0] = address(this);\n        path[1] = uniswapV2Router.WETH();\n\n        _approve(address(this), address(uniswapV2Router), tokenAmount);\n\n        // make the swap\n        uniswapV2Router.swapExactTokensForETHSupportingFeeOnTransferTokens(\n            tokenAmount,\n            0, // accept any amount of ETH\n            path,\n            address(this),\n            block.timestamp\n        );\n    }\n\n    function getPriceOfToken(uint256 amount)\n    public\n    view\n    returns (uint256 price)\n    {\n        address[] memory path = new address[](2);\n        path[0] = address(this);\n        path[1] = uniswapV2Router.WETH();\n\n        price = (uniswapV2Router.getAmountsOut(amount, path))[path.length - 1];\n    }\n}\n",
  "sourcePath": "/Users/mb/dev/truffle-boxes/security-starter-box/packages/common-contracts/contracts/BadAccessControl/Hospo.sol",
  "compiler": {
    "name": "solc",
    "version": "0.8.17+commit.8df45f5f.Emscripten.clang"
  },
  "schemaVersion": "3.4.11",
  "updatedAt": "2023-01-09T01:56:25.974Z",
  "devdoc": {
    "kind": "dev",
    "methods": {
      "allowance(address,address)": {
        "details": "See {IERC20-allowance}."
      },
      "approve(address,uint256)": {
        "details": "See {IERC20-approve}. NOTE: If `amount` is the maximum `uint256`, the allowance is not updated on `transferFrom`. This is semantically equivalent to an infinite approval. Requirements: - `spender` cannot be the zero address."
      },
      "balanceOf(address)": {
        "details": "See {IERC20-balanceOf}."
      },
      "decimals()": {
        "details": "Returns the number of decimals used to get its user representation. For example, if `decimals` equals `2`, a balance of `505` tokens should be displayed to a user as `5.05` (`505 / 10 ** 2`). Tokens usually opt for a value of 18, imitating the relationship between Ether and Wei. This is the value {ERC20} uses, unless this function is overridden; NOTE: This information is only used for _display_ purposes: it in no way affects any of the arithmetic of the contract, including {IERC20-balanceOf} and {IERC20-transfer}."
      },
      "decreaseAllowance(address,uint256)": {
        "details": "Atomically decreases the allowance granted to `spender` by the caller. This is an alternative to {approve} that can be used as a mitigation for problems described in {IERC20-approve}. Emits an {Approval} event indicating the updated allowance. Requirements: - `spender` cannot be the zero address. - `spender` must have allowance for the caller of at least `subtractedValue`."
      },
      "increaseAllowance(address,uint256)": {
        "details": "Atomically increases the allowance granted to `spender` by the caller. This is an alternative to {approve} that can be used as a mitigation for problems described in {IERC20-approve}. Emits an {Approval} event indicating the updated allowance. Requirements: - `spender` cannot be the zero address."
      },
      "name()": {
        "details": "Returns the name of the token."
      },
      "owner()": {
        "details": "Returns the address of the current owner."
      },
      "renounceOwnership()": {
        "details": "Leaves the contract without owner. It will not be possible to call `onlyOwner` functions anymore. Can only be called by the current owner. NOTE: Renouncing ownership will leave the contract without an owner, thereby removing any functionality that is only available to the owner."
      },
      "symbol()": {
        "details": "Returns the symbol of the token, usually a shorter version of the name."
      },
      "testSetup(uint256,uint256)": {
        "details": "TEST METHOD TO HELP US ADD LIQUIDITY EASY"
      },
      "totalSupply()": {
        "details": "See {IERC20-totalSupply}."
      },
      "transfer(address,uint256)": {
        "details": "See {IERC20-transfer}. Requirements: - `to` cannot be the zero address. - the caller must have a balance of at least `amount`."
      },
      "transferFrom(address,address,uint256)": {
        "details": "See {IERC20-transferFrom}. Emits an {Approval} event indicating the updated allowance. This is not required by the EIP. See the note at the beginning of {ERC20}. NOTE: Does not update the allowance if the current allowance is the maximum `uint256`. Requirements: - `from` and `to` cannot be the zero address. - `from` must have a balance of at least `amount`. - the caller must have allowance for ``from``'s tokens of at least `amount`."
      },
      "transferOwnership(address)": {
        "details": "Transfers ownership of the contract to a new account (`newOwner`). Can only be called by the current owner."
      }
    },
    "version": 1
  },
  "userdoc": {
    "kind": "user",
    "methods": {},
    "version": 1
  }
}